{
  "contractName": "Buyer",
  "abi": [
    {
      "inputs": [
        {
          "internalType": "uint256",
          "name": "PID",
          "type": "uint256"
        }
      ],
      "name": "requestProduct",
      "outputs": [
        {
          "internalType": "uint256",
          "name": "",
          "type": "uint256"
        },
        {
          "internalType": "string",
          "name": "",
          "type": "string"
        },
        {
          "internalType": "string",
          "name": "",
          "type": "string"
        },
        {
          "internalType": "uint256",
          "name": "",
          "type": "uint256"
        },
        {
          "internalType": "bool",
          "name": "",
          "type": "bool"
        },
        {
          "internalType": "address",
          "name": "",
          "type": "address"
        }
      ],
      "stateMutability": "view",
      "type": "function",
      "constant": true
    },
    {
      "inputs": [
        {
          "internalType": "uint256",
          "name": "OID",
          "type": "uint256"
        }
      ],
      "name": "viewInvoice",
      "outputs": [
        {
          "internalType": "uint256",
          "name": "",
          "type": "uint256"
        },
        {
          "internalType": "uint256",
          "name": "",
          "type": "uint256"
        },
        {
          "internalType": "address",
          "name": "",
          "type": "address"
        },
        {
          "internalType": "address",
          "name": "",
          "type": "address"
        }
      ],
      "stateMutability": "view",
      "type": "function",
      "constant": true
    },
    {
      "inputs": [
        {
          "internalType": "uint256",
          "name": "PID",
          "type": "uint256"
        },
        {
          "internalType": "string",
          "name": "_name",
          "type": "string"
        },
        {
          "internalType": "string",
          "name": "_address",
          "type": "string"
        },
        {
          "internalType": "uint40",
          "name": "_phone",
          "type": "uint40"
        },
        {
          "internalType": "string",
          "name": "_email",
          "type": "string"
        }
      ],
      "name": "Buy",
      "outputs": [
        {
          "internalType": "uint256",
          "name": "",
          "type": "uint256"
        },
        {
          "internalType": "uint256",
          "name": "",
          "type": "uint256"
        },
        {
          "internalType": "address",
          "name": "",
          "type": "address"
        }
      ],
      "stateMutability": "payable",
      "type": "function",
      "payable": true
    },
    {
      "inputs": [
        {
          "internalType": "uint256",
          "name": "PID",
          "type": "uint256"
        }
      ],
      "name": "getOrderId",
      "outputs": [
        {
          "internalType": "uint256",
          "name": "",
          "type": "uint256"
        },
        {
          "internalType": "string",
          "name": "",
          "type": "string"
        }
      ],
      "stateMutability": "view",
      "type": "function",
      "constant": true
    },
    {
      "inputs": [
        {
          "internalType": "uint256",
          "name": "OID",
          "type": "uint256"
        }
      ],
      "name": "getExportId",
      "outputs": [
        {
          "internalType": "uint256",
          "name": "",
          "type": "uint256"
        },
        {
          "internalType": "string",
          "name": "",
          "type": "string"
        }
      ],
      "stateMutability": "view",
      "type": "function",
      "constant": true
    },
    {
      "inputs": [
        {
          "internalType": "address",
          "name": "_seller",
          "type": "address"
        }
      ],
      "name": "chooseSeller",
      "outputs": [
        {
          "internalType": "address",
          "name": "",
          "type": "address"
        }
      ],
      "stateMutability": "nonpayable",
      "type": "function"
    },
    {
      "inputs": [
        {
          "internalType": "address",
          "name": "_logistics",
          "type": "address"
        }
      ],
      "name": "chooseFreighter",
      "outputs": [
        {
          "internalType": "address",
          "name": "",
          "type": "address"
        }
      ],
      "stateMutability": "nonpayable",
      "type": "function"
    },
    {
      "inputs": [
        {
          "internalType": "uint256",
          "name": "OID",
          "type": "uint256"
        }
      ],
      "name": "BookFreighter",
      "outputs": [],
      "stateMutability": "payable",
      "type": "function",
      "payable": true
    },
    {
      "inputs": [
        {
          "internalType": "uint256",
          "name": "OID",
          "type": "uint256"
        }
      ],
      "name": "FreightBookingStatus",
      "outputs": [
        {
          "internalType": "uint256",
          "name": "",
          "type": "uint256"
        },
        {
          "internalType": "string",
          "name": "",
          "type": "string"
        },
        {
          "internalType": "uint40",
          "name": "",
          "type": "uint40"
        },
        {
          "internalType": "string",
          "name": "",
          "type": "string"
        },
        {
          "internalType": "string",
          "name": "",
          "type": "string"
        },
        {
          "internalType": "bool",
          "name": "",
          "type": "bool"
        }
      ],
      "stateMutability": "view",
      "type": "function",
      "constant": true
    },
    {
      "inputs": [
        {
          "internalType": "uint256",
          "name": "_OID",
          "type": "uint256"
        },
        {
          "internalType": "address",
          "name": "_buyerAddress",
          "type": "address"
        },
        {
          "internalType": "uint256",
          "name": "_ExpoID",
          "type": "uint256"
        }
      ],
      "name": "saveExpoID",
      "outputs": [],
      "stateMutability": "nonpayable",
      "type": "function"
    },
    {
      "inputs": [
        {
          "internalType": "uint256",
          "name": "expoID",
          "type": "uint256"
        }
      ],
      "name": "productDeliveryStatus",
      "outputs": [
        {
          "internalType": "uint256",
          "name": "",
          "type": "uint256"
        },
        {
          "internalType": "uint256",
          "name": "",
          "type": "uint256"
        },
        {
          "internalType": "uint256",
          "name": "",
          "type": "uint256"
        },
        {
          "internalType": "bool",
          "name": "",
          "type": "bool"
        },
        {
          "internalType": "string",
          "name": "",
          "type": "string"
        }
      ],
      "stateMutability": "view",
      "type": "function",
      "constant": true
    }
  ],
  "bytecode": "0x608060405260008060006101000a81548173ffffffffffffffffffffffffffffffffffffffff021916908373ffffffffffffffffffffffffffffffffffffffff1602179055506000600160006101000a81548173ffffffffffffffffffffffffffffffffffffffff021916908373ffffffffffffffffffffffffffffffffffffffff16021790555034801561009357600080fd5b50612754806100a36000396000f3fe60806040526004361061009c5760003560e01c80639d2166ae116100645780639d2166ae146101c1578063ceccc676146101ff578063d9862ba61461021b578063e260365b14610258578063e7d15d7814610295578063f9aa607f146102d35761009c565b806349194b09146100a15780634f329b80146100e357806365292d771461012457806374554279146101565780638f34838514610198575b600080fd5b3480156100ad57600080fd5b506100c860048036038101906100c391906115eb565b610313565b6040516100da96959493929190611713565b60405180910390f35b3480156100ef57600080fd5b5061010a600480360381019061010591906115eb565b610461565b60405161011b959493929190611782565b60405180910390f35b61013e6004803603810190610139919061194e565b610659565b60405161014d93929190611a1d565b60405180910390f35b34801561016257600080fd5b5061017d600480360381019061017891906115eb565b610a22565b60405161018f96959493929190611a63565b60405180910390f35b3480156101a457600080fd5b506101bf60048036038101906101ba9190611b05565b610c2b565b005b3480156101cd57600080fd5b506101e860048036038101906101e391906115eb565b610d15565b6040516101f6929190611b58565b60405180910390f35b610219600480360381019061021491906115eb565b610d92565b005b34801561022757600080fd5b50610242600480360381019061023d9190611b88565b6110d6565b60405161024f9190611bb5565b60405180910390f35b34801561026457600080fd5b5061027f600480360381019061027a9190611b88565b611214565b60405161028c9190611bb5565b60405180910390f35b3480156102a157600080fd5b506102bc60048036038101906102b791906115eb565b61132d565b6040516102ca929190611b58565b60405180910390f35b3480156102df57600080fd5b506102fa60048036038101906102f591906115eb565b6113c7565b60405161030a9493929190611bd0565b60405180910390f35b600060608060008060008073ffffffffffffffffffffffffffffffffffffffff1660008054906101000a900473ffffffffffffffffffffffffffffffffffffffff1673ffffffffffffffffffffffffffffffffffffffff16036103ab576040517f08c379a00000000000000000000000000000000000000000000000000000000081526004016103a290611c61565b60405180910390fd5b600260009054906101000a900473ffffffffffffffffffffffffffffffffffffffff1673ffffffffffffffffffffffffffffffffffffffff1663c7362411886040518263ffffffff1660e01b81526004016104069190611c81565b600060405180830381865afa158015610423573d6000803e3d6000fd5b505050506040513d6000823e3d601f19601f8201168201806040525081019061044c9190611d62565b95509550955095509550955091939550919395565b6000806000806060600073ffffffffffffffffffffffffffffffffffffffff1660008054906101000a900473ffffffffffffffffffffffffffffffffffffffff1673ffffffffffffffffffffffffffffffffffffffff16036104f8576040517f08c379a00000000000000000000000000000000000000000000000000000000081526004016104ef90611e99565b60405180910390fd5b600073ffffffffffffffffffffffffffffffffffffffff16600160009054906101000a900473ffffffffffffffffffffffffffffffffffffffff1673ffffffffffffffffffffffffffffffffffffffff1603610589576040517f08c379a000000000000000000000000000000000000000000000000000000000815260040161058090611f05565b60405180910390fd5b6000806000806000600360009054906101000a900473ffffffffffffffffffffffffffffffffffffffff1673ffffffffffffffffffffffffffffffffffffffff166332ba4cb08c6040518263ffffffff1660e01b81526004016105ec9190611c81565b600060405180830381865afa158015610609573d6000803e3d6000fd5b505050506040513d6000823e3d601f19601f820116820180604052508101906106329190611f25565b94509450945094509450848484848499509950995099509950505050505091939590929450565b60008060008073ffffffffffffffffffffffffffffffffffffffff1660008054906101000a900473ffffffffffffffffffffffffffffffffffffffff1673ffffffffffffffffffffffffffffffffffffffff16036106ec576040517f08c379a00000000000000000000000000000000000000000000000000000000081526004016106e390611c61565b60405180910390fd5b6000880361072f576040517f08c379a000000000000000000000000000000000000000000000000000000000815260040161072690612008565b60405180910390fd5b60003390506000806000600260009054906101000a900473ffffffffffffffffffffffffffffffffffffffff1673ffffffffffffffffffffffffffffffffffffffff166340ef9c818d868e8e8e8e6040518763ffffffff1660e01b815260040161079e96959493929190612028565b6060604051808303816000875af11580156107bd573d6000803e3d6000fd5b505050506040513d601f19601f820116820180604052508101906107e1919061209e565b925092509250823414610829576040517f08c379a00000000000000000000000000000000000000000000000000000000081526004016108209061213d565b60405180910390fd5b60008273ffffffffffffffffffffffffffffffffffffffff163460405161084f9061218e565b60006040518083038185875af1925050503d806000811461088c576040519150601f19603f3d011682016040523d82523d6000602084013e610891565b606091505b50509050806108d5576040517f08c379a00000000000000000000000000000000000000000000000000000000081526004016108cc906121ef565b60405180910390fd5b81600660008f815260200190815260200160002060003373ffffffffffffffffffffffffffffffffffffffff1673ffffffffffffffffffffffffffffffffffffffff1681526020019081526020016000208190555060405180606001604052808381526020018581526020018473ffffffffffffffffffffffffffffffffffffffff168152506005600084815260200190815260200160002060003373ffffffffffffffffffffffffffffffffffffffff1673ffffffffffffffffffffffffffffffffffffffff168152602001908152602001600020600082015181600001556020820151816001015560408201518160020160006101000a81548173ffffffffffffffffffffffffffffffffffffffff021916908373ffffffffffffffffffffffffffffffffffffffff1602179055509050508184849750975097505050505050955095509592505050565b60006060600060608060008073ffffffffffffffffffffffffffffffffffffffff1660008054906101000a900473ffffffffffffffffffffffffffffffffffffffff1673ffffffffffffffffffffffffffffffffffffffff1603610abb576040517f08c379a0000000000000000000000000000000000000000000000000000000008152600401610ab290611e99565b60405180910390fd5b600073ffffffffffffffffffffffffffffffffffffffff16600160009054906101000a900473ffffffffffffffffffffffffffffffffffffffff1673ffffffffffffffffffffffffffffffffffffffff1603610b4c576040517f08c379a0000000000000000000000000000000000000000000000000000000008152600401610b4390611f05565b60405180910390fd5b6000339050600080600080600080600360009054906101000a900473ffffffffffffffffffffffffffffffffffffffff1673ffffffffffffffffffffffffffffffffffffffff1663346fbe128f896040518363ffffffff1660e01b8152600401610bb792919061220f565b600060405180830381865afa158015610bd4573d6000803e3d6000fd5b505050506040513d6000823e3d601f19601f82011682018060405250810190610bfd919061224d565b9550955095509550955095508585858585859c509c509c509c509c509c505050505050505091939550919395565b600160009054906101000a900473ffffffffffffffffffffffffffffffffffffffff1673ffffffffffffffffffffffffffffffffffffffff163373ffffffffffffffffffffffffffffffffffffffff1614610cbb576040517f08c379a0000000000000000000000000000000000000000000000000000000008152600401610cb29061237a565b60405180910390fd5b806004600085815260200190815260200160002060008473ffffffffffffffffffffffffffffffffffffffff1673ffffffffffffffffffffffffffffffffffffffff16815260200190815260200160002081905550505050565b6000606060006006600085815260200190815260200160002060003373ffffffffffffffffffffffffffffffffffffffff1673ffffffffffffffffffffffffffffffffffffffff168152602001908152602001600020549050806040518060600160405280602681526020016126f9602691399250925050915091565b600073ffffffffffffffffffffffffffffffffffffffff1660008054906101000a900473ffffffffffffffffffffffffffffffffffffffff1673ffffffffffffffffffffffffffffffffffffffff1603610e21576040517f08c379a0000000000000000000000000000000000000000000000000000000008152600401610e1890611e99565b60405180910390fd5b600073ffffffffffffffffffffffffffffffffffffffff16600160009054906101000a900473ffffffffffffffffffffffffffffffffffffffff1673ffffffffffffffffffffffffffffffffffffffff1603610eb2576040517f08c379a0000000000000000000000000000000000000000000000000000000008152600401610ea990611f05565b60405180910390fd5b6000806000600360009054906101000a900473ffffffffffffffffffffffffffffffffffffffff1673ffffffffffffffffffffffffffffffffffffffff1663fb2161418560008054906101000a900473ffffffffffffffffffffffffffffffffffffffff16600160009054906101000a900473ffffffffffffffffffffffffffffffffffffffff166040518463ffffffff1660e01b8152600401610f589392919061239a565b6060604051808303816000875af1158015610f77573d6000803e3d6000fd5b505050506040513d601f19601f82011682018060405250810190610f9b91906123d1565b92509250925082610fe1576040517f08c379a0000000000000000000000000000000000000000000000000000000008152600401610fd890612470565b60405180910390fd5b813414611023576040517f08c379a000000000000000000000000000000000000000000000000000000000815260040161101a906124dc565b60405180910390fd5b60008173ffffffffffffffffffffffffffffffffffffffff16346040516110499061218e565b60006040518083038185875af1925050503d8060008114611086576040519150601f19603f3d011682016040523d82523d6000602084013e61108b565b606091505b50509050806110cf576040517f08c379a00000000000000000000000000000000000000000000000000000000081526004016110c69061256e565b60405180910390fd5b5050505050565b60008073ffffffffffffffffffffffffffffffffffffffff168273ffffffffffffffffffffffffffffffffffffffff1603611146576040517f08c379a000000000000000000000000000000000000000000000000000000000815260040161113d90612600565b60405180910390fd5b81600160006101000a81548173ffffffffffffffffffffffffffffffffffffffff021916908373ffffffffffffffffffffffffffffffffffffffff160217905550600160009054906101000a900473ffffffffffffffffffffffffffffffffffffffff16600360006101000a81548173ffffffffffffffffffffffffffffffffffffffff021916908373ffffffffffffffffffffffffffffffffffffffff160217905550600160009054906101000a900473ffffffffffffffffffffffffffffffffffffffff169050919050565b60008073ffffffffffffffffffffffffffffffffffffffff168273ffffffffffffffffffffffffffffffffffffffff1603611284576040517f08c379a000000000000000000000000000000000000000000000000000000000815260040161127b9061266c565b60405180910390fd5b816000806101000a81548173ffffffffffffffffffffffffffffffffffffffff021916908373ffffffffffffffffffffffffffffffffffffffff16021790555081600260006101000a81548173ffffffffffffffffffffffffffffffffffffffff021916908373ffffffffffffffffffffffffffffffffffffffff16021790555060008054906101000a900473ffffffffffffffffffffffffffffffffffffffff169050919050565b6000606060006004600085815260200190815260200160002060003373ffffffffffffffffffffffffffffffffffffffff1673ffffffffffffffffffffffffffffffffffffffff168152602001908152602001600020549050806040518060400160405280601781526020017f206973204578706f72745f496420666f72206f726465720000000000000000008152509250925050915091565b60008060008060006005600087815260200190815260200160002060003373ffffffffffffffffffffffffffffffffffffffff1673ffffffffffffffffffffffffffffffffffffffff1681526020019081526020016000206000015403611463576040517f08c379a000000000000000000000000000000000000000000000000000000000815260040161145a906126d8565b60405180910390fd5b60006005600087815260200190815260200160002060003373ffffffffffffffffffffffffffffffffffffffff1673ffffffffffffffffffffffffffffffffffffffff16815260200190815260200160002060000154905060006005600088815260200190815260200160002060003373ffffffffffffffffffffffffffffffffffffffff1673ffffffffffffffffffffffffffffffffffffffff16815260200190815260200160002060010154905060006005600089815260200190815260200160002060003373ffffffffffffffffffffffffffffffffffffffff1673ffffffffffffffffffffffffffffffffffffffff16815260200190815260200160002060020160009054906101000a900473ffffffffffffffffffffffffffffffffffffffff1690508282338396509650965096505050509193509193565b6000604051905090565b600080fd5b600080fd5b6000819050919050565b6115c8816115b5565b81146115d357600080fd5b50565b6000813590506115e5816115bf565b92915050565b600060208284031215611601576116006115ab565b5b600061160f848285016115d6565b91505092915050565b611621816115b5565b82525050565b600081519050919050565b600082825260208201905092915050565b60005b83811015611661578082015181840152602081019050611646565b60008484015250505050565b6000601f19601f8301169050919050565b600061168982611627565b6116938185611632565b93506116a3818560208601611643565b6116ac8161166d565b840191505092915050565b60008115159050919050565b6116cc816116b7565b82525050565b600073ffffffffffffffffffffffffffffffffffffffff82169050919050565b60006116fd826116d2565b9050919050565b61170d816116f2565b82525050565b600060c0820190506117286000830189611618565b818103602083015261173a818861167e565b9050818103604083015261174e818761167e565b905061175d6060830186611618565b61176a60808301856116c3565b61177760a0830184611704565b979650505050505050565b600060a0820190506117976000830188611618565b6117a46020830187611618565b6117b16040830186611618565b6117be60608301856116c3565b81810360808301526117d0818461167e565b90509695505050505050565b600080fd5b600080fd5b7f4e487b7100000000000000000000000000000000000000000000000000000000600052604160045260246000fd5b61181e8261166d565b810181811067ffffffffffffffff8211171561183d5761183c6117e6565b5b80604052505050565b60006118506115a1565b905061185c8282611815565b919050565b600067ffffffffffffffff82111561187c5761187b6117e6565b5b6118858261166d565b9050602081019050919050565b82818337600083830152505050565b60006118b46118af84611861565b611846565b9050828152602081018484840111156118d0576118cf6117e1565b5b6118db848285611892565b509392505050565b600082601f8301126118f8576118f76117dc565b5b81356119088482602086016118a1565b91505092915050565b600064ffffffffff82169050919050565b61192b81611911565b811461193657600080fd5b50565b60008135905061194881611922565b92915050565b600080600080600060a0868803121561196a576119696115ab565b5b6000611978888289016115d6565b955050602086013567ffffffffffffffff811115611999576119986115b0565b5b6119a5888289016118e3565b945050604086013567ffffffffffffffff8111156119c6576119c56115b0565b5b6119d2888289016118e3565b93505060606119e388828901611939565b925050608086013567ffffffffffffffff811115611a0457611a036115b0565b5b611a10888289016118e3565b9150509295509295909350565b6000606082019050611a326000830186611618565b611a3f6020830185611618565b611a4c6040830184611704565b949350505050565b611a5d81611911565b82525050565b600060c082019050611a786000830189611618565b8181036020830152611a8a818861167e565b9050611a996040830187611a54565b8181036060830152611aab818661167e565b90508181036080830152611abf818561167e565b9050611ace60a08301846116c3565b979650505050505050565b611ae2816116f2565b8114611aed57600080fd5b50565b600081359050611aff81611ad9565b92915050565b600080600060608486031215611b1e57611b1d6115ab565b5b6000611b2c868287016115d6565b9350506020611b3d86828701611af0565b9250506040611b4e868287016115d6565b9150509250925092565b6000604082019050611b6d6000830185611618565b8181036020830152611b7f818461167e565b90509392505050565b600060208284031215611b9e57611b9d6115ab565b5b6000611bac84828501611af0565b91505092915050565b6000602082019050611bca6000830184611704565b92915050565b6000608082019050611be56000830187611618565b611bf26020830186611618565b611bff6040830185611704565b611c0c6060830184611704565b95945050505050565b7f63686f6f73652053656c6c657220466972737400000000000000000000000000600082015250565b6000611c4b601383611632565b9150611c5682611c15565b602082019050919050565b60006020820190508181036000830152611c7a81611c3e565b9050919050565b6000602082019050611c966000830184611618565b92915050565b600081519050611cab816115bf565b92915050565b6000611cc4611cbf84611861565b611846565b905082815260208101848484011115611ce057611cdf6117e1565b5b611ceb848285611643565b509392505050565b600082601f830112611d0857611d076117dc565b5b8151611d18848260208601611cb1565b91505092915050565b611d2a816116b7565b8114611d3557600080fd5b50565b600081519050611d4781611d21565b92915050565b600081519050611d5c81611ad9565b92915050565b60008060008060008060c08789031215611d7f57611d7e6115ab565b5b6000611d8d89828a01611c9c565b965050602087015167ffffffffffffffff811115611dae57611dad6115b0565b5b611dba89828a01611cf3565b955050604087015167ffffffffffffffff811115611ddb57611dda6115b0565b5b611de789828a01611cf3565b9450506060611df889828a01611c9c565b9350506080611e0989828a01611d38565b92505060a0611e1a89828a01611d4d565b9150509295509295509295565b7f63686f6f73652053656c6c657220466972737420616e64206275792070726f6460008201527f7563740000000000000000000000000000000000000000000000000000000000602082015250565b6000611e83602383611632565b9150611e8e82611e27565b604082019050919050565b60006020820190508181036000830152611eb281611e76565b9050919050565b7f43686f6f73652046726569676874657220466972737400000000000000000000600082015250565b6000611eef601683611632565b9150611efa82611eb9565b602082019050919050565b60006020820190508181036000830152611f1e81611ee2565b9050919050565b600080600080600060a08688031215611f4157611f406115ab565b5b6000611f4f88828901611c9c565b9550506020611f6088828901611c9c565b9450506040611f7188828901611c9c565b9350506060611f8288828901611d38565b925050608086015167ffffffffffffffff811115611fa357611fa26115b0565b5b611faf88828901611cf3565b9150509295509295909350565b7f696e76616c696420504944000000000000000000000000000000000000000000600082015250565b6000611ff2600b83611632565b9150611ffd82611fbc565b602082019050919050565b6000602082019050818103600083015261202181611fe5565b9050919050565b600060c08201905061203d6000830189611618565b61204a6020830188611704565b818103604083015261205c818761167e565b90508181036060830152612070818661167e565b905061207f6080830185611a54565b81810360a0830152612091818461167e565b9050979650505050505050565b6000806000606084860312156120b7576120b66115ab565b5b60006120c586828701611c9c565b93505060206120d686828701611d4d565b92505060406120e786828701611c9c565b9150509250925092565b7f4c6f772046756e64000000000000000000000000000000000000000000000000600082015250565b6000612127600883611632565b9150612132826120f1565b602082019050919050565b600060208201905081810360008301526121568161211a565b9050919050565b600081905092915050565b50565b600061217860008361215d565b915061218382612168565b600082019050919050565b60006121998261216b565b9150819050919050565b7f427579206661696c656421000000000000000000000000000000000000000000600082015250565b60006121d9600b83611632565b91506121e4826121a3565b602082019050919050565b60006020820190508181036000830152612208816121cc565b9050919050565b60006040820190506122246000830185611618565b6122316020830184611704565b9392505050565b60008151905061224781611922565b92915050565b60008060008060008060c0878903121561226a576122696115ab565b5b600061227889828a01611c9c565b965050602087015167ffffffffffffffff811115612299576122986115b0565b5b6122a589828a01611cf3565b95505060406122b689828a01612238565b945050606087015167ffffffffffffffff8111156122d7576122d66115b0565b5b6122e389828a01611cf3565b935050608087015167ffffffffffffffff811115612304576123036115b0565b5b61231089828a01611cf3565b92505060a061232189828a01611d38565b9150509295509295509295565b7f4e6f74204c6f6769737469637300000000000000000000000000000000000000600082015250565b6000612364600d83611632565b915061236f8261232e565b602082019050919050565b6000602082019050818103600083015261239381612357565b9050919050565b60006060820190506123af6000830186611618565b6123bc6020830185611704565b6123c96040830184611704565b949350505050565b6000806000606084860312156123ea576123e96115ab565b5b60006123f886828701611d38565b935050602061240986828701611c9c565b925050604061241a86828701611d4d565b9150509250925092565b7f426f6f6b696e6720526576696577204661696c65642100000000000000000000600082015250565b600061245a601683611632565b915061246582612424565b602082019050919050565b600060208201905081810360008301526124898161244d565b9050919050565b7f696e73756666696369656e742046756e64730000000000000000000000000000600082015250565b60006124c6601283611632565b91506124d182612490565b602082019050919050565b600060208201905081810360008301526124f5816124b9565b9050919050565b7f4672656967687420426f6f6b696e67206661696c6564206174205061796d656e60008201527f7400000000000000000000000000000000000000000000000000000000000000602082015250565b6000612558602183611632565b9150612563826124fc565b604082019050919050565b600060208201905081810360008301526125878161254b565b9050919050565b7f496e76616c6964204c6f6769737469637320436f6e747261637420416464726560008201527f7373000000000000000000000000000000000000000000000000000000000000602082015250565b60006125ea602283611632565b91506125f58261258e565b604082019050919050565b60006020820190508181036000830152612619816125dd565b9050919050565b7f496e76616c69642053656c6c657220436f6e7472616374204164647265737300600082015250565b6000612656601f83611632565b915061266182612620565b602082019050919050565b6000602082019050818103600083015261268581612649565b9050919050565b7f4e6f2050757263686173657320466f756e647300000000000000000000000000600082015250565b60006126c2601383611632565b91506126cd8261268c565b602082019050919050565b600060208201905081810360008301526126f1816126b5565b905091905056fe206973204f726465725f496420666f72207468652070726f6475637420707572636861736564a2646970667358221220a54c3d5b4e070b841a0799a1044804d0116a8a783fb91b5c50570af2d855540c64736f6c63430008110033",
  "immutableReferences": {},
  "source": "// SPDX-License-Identifier: MIT\r\n\r\nimport \"./Seller.sol\";\r\n\r\nimport \"./Logistics.sol\";\r\n\r\npragma solidity ^0.8.0;\r\n\r\ncontract Buyer{\r\n\r\n    // Seller\r\n\r\n    address seller = address(0);\r\n\r\n    address logistics = address(0);\r\n\r\n    Seller s;\r\n\r\n    Logistics L;\r\n\r\n    mapping (uint => mapping (address => uint)) internal DeliveryStatusID;\r\n\r\n    struct orderedInvoice{\r\n\r\n        uint OID;\r\n\r\n        uint pricePaid;\r\n\r\n        address paidTo;\r\n\r\n    }\r\n\r\n    mapping (uint => mapping (address=> orderedInvoice)) internal ProductOrderedInvoice;\r\n\r\n    mapping (uint => mapping (address => uint)) internal OrderIDs;\r\n\r\n    function requestProduct(uint PID) public view returns (uint, \r\n        string memory, \r\n        string memory, \r\n        uint, \r\n        bool, \r\n        address){\r\n\r\n        require(seller != address(0), \"choose Seller First\");\r\n        \r\n        return s.requestProductQuotes(PID);\r\n\r\n    }\r\n\r\n    function viewInvoice(uint OID) public view returns (uint, uint, address, address){\r\n\r\n        require(ProductOrderedInvoice[OID][msg.sender].OID != 0, \"No Purchases Founds\");\r\n\r\n        uint _OID = ProductOrderedInvoice[OID][msg.sender].OID;\r\n\r\n        uint _toPay = ProductOrderedInvoice[OID][msg.sender].pricePaid;\r\n\r\n        address _paidTo = ProductOrderedInvoice[OID][msg.sender].paidTo;\r\n\r\n        return (_OID,_toPay,msg.sender,_paidTo);\r\n\r\n    }\r\n\r\n    function Buy(uint PID, \r\n        string memory _name, \r\n        string memory _address,\r\n        uint40 _phone, \r\n        string memory _email) public payable returns (uint,uint,address){\r\n\r\n        require(seller != address(0), \"choose Seller First\");\r\n        \r\n        require(PID != 0, \"invalid PID\");\r\n\r\n        address _Buyer = msg.sender;\r\n\r\n        (uint toPay, address _seller, uint OID) = s.Buy(PID,_Buyer,_name,_address,_phone,_email);\r\n\r\n        require(msg.value == toPay, \"Low Fund\");\r\n\r\n        (bool success,) = (_seller).call{value: msg.value}(\"\");\r\n\r\n        require(success,\"Buy failed!\");\r\n\r\n        OrderIDs[PID][msg.sender] = OID;\r\n\r\n        ProductOrderedInvoice[OID][msg.sender] = orderedInvoice(OID,toPay,_seller); \r\n\r\n        return (OID, toPay, _seller);\r\n    \r\n    }\r\n\r\n    function getOrderId(uint PID) public view returns (uint, string memory){\r\n        uint oid = OrderIDs[PID][msg.sender];\r\n        return (oid,\" is Order_Id for the product purchased\");\r\n    }\r\n\r\n    function getExportId(uint OID) public view returns (uint, string memory){\r\n        uint ExpoID = DeliveryStatusID[OID][msg.sender];\r\n        return (ExpoID,\" is Export_Id for order\");\r\n    }\r\n\r\n   \r\n\r\n    // function Buy(uint PID, \r\n    //     string memory _name, \r\n    //     string memory _address,\r\n    //     uint40 _phone, \r\n    //     string memory _email) public payable returns(uint){\r\n\r\n    //     require(seller != address(0), \"choose Seller First\");\r\n        \r\n    //     require(PID != 0, \"invalid PID\");\r\n\r\n    //     address _Buyer = msg.sender;\r\n\r\n    //     (uint toPay, address _seller, uint oid) = s.Buy(PID,_Buyer,_name,_address,_phone,_email);\r\n\r\n    //     require(msg.value == toPay, \"Low Fund\");\r\n\r\n    //     (bool success,) = (_seller).call{value: msg.value}(\"\");\r\n\r\n    //     require(success,\"Buy failed!\");\r\n\r\n    //     return oid;\r\n    \r\n    // }\r\n\r\n\r\n    function chooseSeller(address _seller) public returns(address){\r\n\r\n        require(_seller != address(0),\"Invalid Seller Contract Address\");\r\n        \r\n        seller = _seller;\r\n\r\n        s = Seller(_seller);\r\n\r\n        return seller;\r\n\r\n    }\r\n\r\n    function chooseFreighter(address _logistics) public returns(address){\r\n\r\n        require(_logistics != address(0),\"Invalid Logistics Contract Address\");\r\n\r\n        logistics = _logistics;\r\n\r\n        L = Logistics(logistics);\r\n\r\n        return logistics;\r\n\r\n    }\r\n\r\n    function BookFreighter(uint OID) public payable {\r\n\r\n        require(seller != address(0), \"choose Seller First and buy product\");\r\n\r\n        require(logistics != address(0), \"Choose Freighter First\");\r\n        \r\n        (bool bookingReview, uint freighterPrice, address freightAccount) = L.bookFreight(OID, seller, logistics);\r\n\r\n        require(bookingReview, \"Booking Review Failed!\");\r\n\r\n        require(msg.value == freighterPrice, \"insufficient Funds\");\r\n\r\n        (bool success,) = freightAccount.call{value: msg.value}(\"\");\r\n\r\n        require(success, \"Freight Booking failed at Payment\");\r\n\r\n    }\r\n\r\n    function FreightBookingStatus(uint OID) public view returns (uint,\r\n        string memory,\r\n        uint40,\r\n        string memory,\r\n        string memory,\r\n        bool){\r\n\r\n        require(seller != address(0), \"choose Seller First and buy product\");\r\n\r\n        require(logistics != address(0), \"Choose Freighter First\");\r\n\r\n        address _buyer = msg.sender;\r\n\r\n        (uint _OID,string memory _name,\r\n        uint40 _phone,\r\n        string memory _address,\r\n        string memory _email,\r\n        bool _status) = L.viewFreightBookings(OID, _buyer);\r\n\r\n        return (_OID,_name,_phone,_address,_email,_status);\r\n\r\n    }\r\n\r\n    function saveExpoID(uint _OID, address _buyerAddress,uint _ExpoID) external {\r\n\r\n        require(msg.sender == logistics, \"Not Logistics\");\r\n\r\n        DeliveryStatusID[_OID][_buyerAddress] = _ExpoID;\r\n\r\n    }\r\n\r\n    \r\n\r\n    function productDeliveryStatus(uint expoID) public view returns (uint /*ExpoID*/,\r\n        uint, /*OID*/\r\n        uint, /*PID*/\r\n        bool, /*productHandedOver*/\r\n        string memory /*deliveryStatus*/){\r\n\r\n        require(seller != address(0), \"choose Seller First and buy product\");\r\n\r\n        require(logistics != address(0), \"Choose Freighter First\");\r\n        \r\n        (uint ExpoID,\r\n        uint OID,\r\n        uint PID,\r\n        bool productHandedOver,\r\n        string memory deliveryStatus) = L.deliveryStatus(expoID);\r\n\r\n        return (ExpoID,OID,PID,productHandedOver,deliveryStatus);\r\n    }\r\n\r\n}\r\n\r\n\r\n\r\n\r\n\r\n\r\n\r\n\r\n\r\n\r\n// import \"./Seller.sol\";\r\n\r\n// import \"./Logistics.sol\";\r\n\r\n// pragma solidity ^0.8.0;\r\n\r\n// contract Buyer{\r\n\r\n//     // Seller\r\n\r\n//     address seller;\r\n\r\n//     address logistics;\r\n\r\n//     Seller s;\r\n\r\n//     Logistics L;\r\n\r\n//     function requestProduct(uint PID) public view returns (uint, \r\n//         string memory, \r\n//         string memory, \r\n//         uint, \r\n//         bool, \r\n//         address){\r\n        \r\n//         return s.requestProductQuotes(PID);\r\n\r\n//     }\r\n\r\n\r\n//     function Buy(uint PID, \r\n//         string memory _name, \r\n//         string memory _address, \r\n//         uint40 _phone, \r\n//         string memory _email) public payable {\r\n        \r\n//         require(PID != 0, \"invalid PID\");\r\n\r\n//         address _Buyer = msg.sender;\r\n\r\n//         (uint num, address _seller) = s.Buy(PID,_Buyer,_name,_address,_phone,_email);\r\n\r\n//         require(msg.value == num, \"Low Fund\");\r\n\r\n//         (bool success,) = (_seller).call{value: msg.value}(\"\");\r\n\r\n//         require(success,\"Buy failed!\");\r\n    \r\n//     }\r\n\r\n\r\n//     function chooseSeller(address _seller) public {\r\n        \r\n//         seller = _seller;\r\n\r\n//         s = Seller(_seller);\r\n\r\n//     }\r\n\r\n//     function chooseFreighter(address _logistics) public {\r\n\r\n//         logistics = _logistics;\r\n\r\n//         L = Logistics(logistics);\r\n\r\n//     }\r\n\r\n//     function BookFreighter(uint OID) public payable {\r\n        \r\n//         (bool bookingReview, uint freighterPrice, address freightAccount) = L.bookFreight(OID, seller);\r\n\r\n//         require(bookingReview, \"Booking Review Failed!\");\r\n\r\n//         require(msg.value == freighterPrice, \"insufficient Funds\");\r\n\r\n//         (bool success,) = freightAccount.call{value: msg.value}(\"\");\r\n\r\n//         require(success, \"Freight Booking failed at Payment\");\r\n\r\n//     }\r\n\r\n//     function viewMyFreightBooking(uint OID) public view returns (uint,\r\n//         string memory,\r\n//         uint40,\r\n//         string memory,\r\n//         string memory,\r\n//         bool){\r\n\r\n//         address _buyer = msg.sender;\r\n\r\n//         (uint _OID,string memory _name,\r\n//         uint40 _phone,\r\n//         string memory _address,\r\n//         string memory _email,\r\n//         bool _status) = L.viewFreightBookings(OID, _buyer);\r\n\r\n//         return (_OID,_name,_phone,_address,_email,_status);\r\n\r\n//     }\r\n\r\n// }\r\n",
  "sourcePath": "C:\\Users\\sakha\\OneDrive\\Desktop\\Logistics_Tracing_Application\\contracts\\Buyer.sol",
  "compiler": {
    "name": "solc",
    "version": "0.8.17+commit.8df45f5f.Emscripten.clang"
  },
  "schemaVersion": "3.4.10",
  "updatedAt": "2022-10-21T09:18:35.583Z",
  "networkType": "ethereum",
  "devdoc": {
    "kind": "dev",
    "methods": {},
    "version": 1
  },
  "userdoc": {
    "kind": "user",
    "methods": {},
    "version": 1
  }
}