{
  "contractName": "Logistics",
  "abi": [
    {
      "inputs": [
        {
          "internalType": "address",
          "name": "adr",
          "type": "address"
        }
      ],
      "stateMutability": "nonpayable",
      "type": "constructor"
    },
    {
      "inputs": [
        {
          "internalType": "uint256",
          "name": "",
          "type": "uint256"
        }
      ],
      "name": "CurrentProductDeliveries",
      "outputs": [
        {
          "internalType": "uint256",
          "name": "ExpoID",
          "type": "uint256"
        },
        {
          "internalType": "uint256",
          "name": "OID",
          "type": "uint256"
        },
        {
          "internalType": "uint256",
          "name": "PID",
          "type": "uint256"
        },
        {
          "internalType": "bool",
          "name": "productHandedOver",
          "type": "bool"
        },
        {
          "internalType": "bool",
          "name": "deliveryInitiated",
          "type": "bool"
        },
        {
          "internalType": "bool",
          "name": "exportPort",
          "type": "bool"
        },
        {
          "internalType": "bool",
          "name": "importPort",
          "type": "bool"
        },
        {
          "internalType": "bool",
          "name": "delivered",
          "type": "bool"
        }
      ],
      "stateMutability": "view",
      "type": "function",
      "constant": true
    },
    {
      "inputs": [
        {
          "internalType": "uint256",
          "name": "",
          "type": "uint256"
        }
      ],
      "name": "exportCleared",
      "outputs": [
        {
          "internalType": "bool",
          "name": "",
          "type": "bool"
        }
      ],
      "stateMutability": "view",
      "type": "function",
      "constant": true
    },
    {
      "inputs": [
        {
          "internalType": "uint256",
          "name": "",
          "type": "uint256"
        }
      ],
      "name": "importCleared",
      "outputs": [
        {
          "internalType": "bool",
          "name": "",
          "type": "bool"
        }
      ],
      "stateMutability": "view",
      "type": "function",
      "constant": true
    },
    {
      "inputs": [
        {
          "internalType": "uint256",
          "name": "OID",
          "type": "uint256"
        },
        {
          "internalType": "address",
          "name": "seller",
          "type": "address"
        },
        {
          "internalType": "address",
          "name": "_logistics",
          "type": "address"
        }
      ],
      "name": "bookFreight",
      "outputs": [
        {
          "internalType": "bool",
          "name": "",
          "type": "bool"
        },
        {
          "internalType": "uint256",
          "name": "",
          "type": "uint256"
        },
        {
          "internalType": "address",
          "name": "",
          "type": "address"
        }
      ],
      "stateMutability": "nonpayable",
      "type": "function"
    },
    {
      "inputs": [
        {
          "internalType": "uint256",
          "name": "OID",
          "type": "uint256"
        },
        {
          "internalType": "address",
          "name": "_caller",
          "type": "address"
        }
      ],
      "name": "viewFreightBookings",
      "outputs": [
        {
          "internalType": "uint256",
          "name": "",
          "type": "uint256"
        },
        {
          "internalType": "string",
          "name": "",
          "type": "string"
        },
        {
          "internalType": "uint40",
          "name": "",
          "type": "uint40"
        },
        {
          "internalType": "string",
          "name": "",
          "type": "string"
        },
        {
          "internalType": "string",
          "name": "",
          "type": "string"
        },
        {
          "internalType": "bool",
          "name": "",
          "type": "bool"
        }
      ],
      "stateMutability": "view",
      "type": "function",
      "constant": true
    },
    {
      "inputs": [
        {
          "internalType": "uint256",
          "name": "OID",
          "type": "uint256"
        }
      ],
      "name": "pickProductForExport",
      "outputs": [],
      "stateMutability": "nonpayable",
      "type": "function"
    },
    {
      "inputs": [
        {
          "internalType": "uint256",
          "name": "_ExpoID",
          "type": "uint256"
        }
      ],
      "name": "initiateDelivery",
      "outputs": [],
      "stateMutability": "nonpayable",
      "type": "function"
    },
    {
      "inputs": [
        {
          "internalType": "uint256",
          "name": "_ExpoID",
          "type": "uint256"
        }
      ],
      "name": "deliveryStatus",
      "outputs": [
        {
          "internalType": "uint256",
          "name": "",
          "type": "uint256"
        },
        {
          "internalType": "uint256",
          "name": "",
          "type": "uint256"
        },
        {
          "internalType": "uint256",
          "name": "",
          "type": "uint256"
        },
        {
          "internalType": "bool",
          "name": "",
          "type": "bool"
        },
        {
          "internalType": "string",
          "name": "",
          "type": "string"
        }
      ],
      "stateMutability": "view",
      "type": "function",
      "constant": true
    },
    {
      "inputs": [
        {
          "internalType": "address",
          "name": "_ClearancePortContract",
          "type": "address"
        }
      ],
      "name": "chooseClearncePort",
      "outputs": [],
      "stateMutability": "nonpayable",
      "type": "function"
    },
    {
      "inputs": [
        {
          "internalType": "uint256",
          "name": "_ExpoID",
          "type": "uint256"
        }
      ],
      "name": "sourcePortArrival",
      "outputs": [],
      "stateMutability": "nonpayable",
      "type": "function"
    },
    {
      "inputs": [
        {
          "internalType": "uint256",
          "name": "_ExpoID",
          "type": "uint256"
        }
      ],
      "name": "destinationPortArrival",
      "outputs": [],
      "stateMutability": "nonpayable",
      "type": "function"
    },
    {
      "inputs": [
        {
          "internalType": "uint256",
          "name": "_ExpoID",
          "type": "uint256"
        }
      ],
      "name": "deliver",
      "outputs": [],
      "stateMutability": "nonpayable",
      "type": "function"
    },
    {
      "inputs": [
        {
          "internalType": "uint256",
          "name": "_expoID",
          "type": "uint256"
        },
        {
          "internalType": "address",
          "name": "_Logistics",
          "type": "address"
        },
        {
          "internalType": "address",
          "name": "_seller",
          "type": "address"
        }
      ],
      "name": "exportVerifiction",
      "outputs": [],
      "stateMutability": "nonpayable",
      "type": "function"
    },
    {
      "inputs": [
        {
          "internalType": "uint256",
          "name": "_expoID",
          "type": "uint256"
        },
        {
          "internalType": "address",
          "name": "_Logistics",
          "type": "address"
        },
        {
          "internalType": "address",
          "name": "_buyer",
          "type": "address"
        }
      ],
      "name": "importVerifiction",
      "outputs": [],
      "stateMutability": "nonpayable",
      "type": "function"
    }
  ],
  "bytecode": "0x60806040526000600160006101000a81548173ffffffffffffffffffffffffffffffffffffffff021916908373ffffffffffffffffffffffffffffffffffffffff1602179055506001600355662386f26fc100006005553480156200006357600080fd5b50604051620043303803806200433083398181016040528101906200008991906200013b565b80600460006101000a81548173ffffffffffffffffffffffffffffffffffffffff021916908373ffffffffffffffffffffffffffffffffffffffff160217905550506200016d565b600080fd5b600073ffffffffffffffffffffffffffffffffffffffff82169050919050565b60006200010382620000d6565b9050919050565b6200011581620000f6565b81146200012157600080fd5b50565b60008151905062000135816200010a565b92915050565b600060208284031215620001545762000153620000d1565b5b6000620001648482850162000124565b91505092915050565b6141b3806200017d6000396000f3fe608060405234801561001057600080fd5b50600436106100ea5760003560e01c8063651ed0901161008c578063b59f7ad811610066578063b59f7ad81461027b578063ba74190d14610297578063cb307385146102b3578063fb216141146102cf576100ea565b8063651ed0901461021357806399c8606114610243578063b4ca799f1461025f576100ea565b806332ba4cb0116100c857806332ba4cb014610172578063346fbe12146101a65780633bd5d173146101db578063407f6a24146101f7576100ea565b8063079e86ec146100ef5780631c28309f1461010b5780633237ba3914610142575b600080fd5b61010960048036038101906101049190612a06565b610301565b005b61012560048036038101906101209190612a59565b6105ac565b604051610139989796959493929190612ab0565b60405180910390f35b61015c60048036038101906101579190612a59565b610635565b6040516101699190612b2e565b60405180910390f35b61018c60048036038101906101879190612a59565b610655565b60405161019d959493929190612bd9565b60405180910390f35b6101c060048036038101906101bb9190612c33565b610dad565b6040516101d296959493929190612c93565b60405180910390f35b6101f560048036038101906101f09190612a59565b6110b4565b005b610211600480360381019061020c9190612a59565b6113db565b005b61022d60048036038101906102289190612a59565b6117ed565b60405161023a9190612b2e565b60405180910390f35b61025d60048036038101906102589190612a59565b61180d565b005b61027960048036038101906102749190612a59565b61198b565b005b61029560048036038101906102909190612a06565b611c7b565b005b6102b160048036038101906102ac9190612a59565b611f90565b005b6102cd60048036038101906102c89190612d09565b612364565b005b6102e960048036038101906102e49190612a06565b6124e7565b6040516102f893929190612d45565b60405180910390f35b6000600a6000858152602001908152602001600020600101541161035a576040517f08c379a000000000000000000000000000000000000000000000000000000000815260040161035190612dc8565b60405180910390fd5b600160009054906101000a900473ffffffffffffffffffffffffffffffffffffffff1673ffffffffffffffffffffffffffffffffffffffff163373ffffffffffffffffffffffffffffffffffffffff16146103ea576040517f08c379a00000000000000000000000000000000000000000000000000000000081526004016103e190612e34565b60405180910390fd5b3073ffffffffffffffffffffffffffffffffffffffff168273ffffffffffffffffffffffffffffffffffffffff1614610458576040517f08c379a000000000000000000000000000000000000000000000000000000000815260040161044f90612ea0565b60405180910390fd5b6000600a60008581526020019081526020016000206001015490506009600082815260200190815260200160002060030160009054906101000a900473ffffffffffffffffffffffffffffffffffffffff1673ffffffffffffffffffffffffffffffffffffffff168273ffffffffffffffffffffffffffffffffffffffff1614610517576040517f08c379a000000000000000000000000000000000000000000000000000000000815260040161050e90612f32565b60405180910390fd5b600a600085815260200190815260200160002060030160039054906101000a900460ff1661057a576040517f08c379a000000000000000000000000000000000000000000000000000000000815260040161057190612fc4565b60405180910390fd5b60016008600086815260200190815260200160002060006101000a81548160ff02191690831515021790555050505050565b600a6020528060005260406000206000915090508060000154908060010154908060020154908060030160009054906101000a900460ff16908060030160019054906101000a900460ff16908060030160029054906101000a900460ff16908060030160039054906101000a900460ff16908060030160049054906101000a900460ff16905088565b60076020528060005260406000206000915054906101000a900460ff1681565b60008060008060606000600a60008881526020019081526020016000206001015490506000806000600660009054906101000a900473ffffffffffffffffffffffffffffffffffffffff1673ffffffffffffffffffffffffffffffffffffffff16638fb326f2856040518263ffffffff1660e01b81526004016106d89190612fe4565b600060405180830381865afa1580156106f5573d6000803e3d6000fd5b505050506040513d6000823e3d601f19601f8201168201806040525081019061071e919061317b565b9850985098505050505050506009600085815260200190815260200160002060090160009054906101000a900460ff1661078d576040517f08c379a0000000000000000000000000000000000000000000000000000000008152600401610784906132ad565b60405180910390fd5b826107cd576040517f08c379a00000000000000000000000000000000000000000000000000000000081526004016107c490613319565b60405180910390fd5b8161080d576040517f08c379a000000000000000000000000000000000000000000000000000000000815260040161080490613385565b60405180910390fd5b8061084d576040517f08c379a0000000000000000000000000000000000000000000000000000000008152600401610844906133f1565b60405180910390fd5b60001515600a60008c815260200190815260200160002060030160009054906101000a900460ff1615150361092e57600a60008b815260200190815260200160002060000154600a60008c815260200190815260200160002060010154600a60008d815260200190815260200160002060020154600a60008e815260200190815260200160002060030160009054906101000a900460ff166040518060400160405280601981526020017f50726f64756374204e6f7420796574205069636b65642d5570000000000000008152509850985098509850985050505050610da4565b60001515600a60008c815260200190815260200160002060030160019054906101000a900460ff16151503610a0f57600a60008b815260200190815260200160002060000154600a60008c815260200190815260200160002060010154600a60008d815260200190815260200160002060020154600a60008e815260200190815260200160002060030160009054906101000a900460ff166040518060400160405280601781526020017f5368697070696e67205374617274732073686f72746c790000000000000000008152509850985098509850985050505050610da4565b60001515600a60008c815260200190815260200160002060030160029054906101000a900460ff16151503610ad357600a60008b815260200190815260200160002060000154600a60008c815260200190815260200160002060010154600a60008d815260200190815260200160002060020154600a60008e815260200190815260200160002060030160009054906101000a900460ff166040518060800160405280604e81526020016140ec604e91399850985098509850985050505050610da4565b60001515600a60008c815260200190815260200160002060030160039054906101000a900460ff16151503610b9757600a60008b815260200190815260200160002060000154600a60008c815260200190815260200160002060010154600a60008d815260200190815260200160002060020154600a60008e815260200190815260200160002060030160009054906101000a900460ff1660405180608001604052806044815260200161413a604491399850985098509850985050505050610da4565b60001515600a60008c815260200190815260200160002060030160049054906101000a900460ff16151503610c7857600a60008b815260200190815260200160002060000154600a60008c815260200190815260200160002060010154600a60008d815260200190815260200160002060020154600a60008e815260200190815260200160002060030160009054906101000a900460ff166040518060400160405280601081526020017f4f757420666f722044656c6976657279000000000000000000000000000000008152509850985098509850985050505050610da4565b60011515600a60008c815260200190815260200160002060030160049054906101000a900460ff16151503610d5957600a60008b815260200190815260200160002060000154600a60008c815260200190815260200160002060010154600a60008d815260200190815260200160002060020154600a60008e815260200190815260200160002060030160009054906101000a900460ff166040518060400160405280600981526020017f44656c69766572656400000000000000000000000000000000000000000000008152509850985098509850985050505050610da4565b6000806000806040518060400160405280601581526020017f536f6d657468696e672077656e742077726f6e6721000000000000000000000081525098509850985098509850505050505b91939590929450565b6000606060006060806000600b600089815260200190815260200160002060008873ffffffffffffffffffffffffffffffffffffffff1673ffffffffffffffffffffffffffffffffffffffff16815260200190815260200160002060009054906101000a900460ff16610e55576040517f08c379a0000000000000000000000000000000000000000000000000000000008152600401610e4c9061345d565b60405180910390fd5b6009600089815260200190815260200160002060010154600960008a8152602001908152602001600020600501600960008b815260200190815260200160002060060160009054906101000a900464ffffffffff16600960008c8152602001908152602001600020600701600960008d8152602001908152602001600020600801600960008e815260200190815260200160002060090160009054906101000a900460ff16848054610f06906134ac565b80601f0160208091040260200160405190810160405280929190818152602001828054610f32906134ac565b8015610f7f5780601f10610f5457610100808354040283529160200191610f7f565b820191906000526020600020905b815481529060010190602001808311610f6257829003601f168201915b50505050509450828054610f92906134ac565b80601f0160208091040260200160405190810160405280929190818152602001828054610fbe906134ac565b801561100b5780601f10610fe05761010080835404028352916020019161100b565b820191906000526020600020905b815481529060010190602001808311610fee57829003601f168201915b5050505050925081805461101e906134ac565b80601f016020809104026020016040519081016040528092919081815260200182805461104a906134ac565b80156110975780601f1061106c57610100808354040283529160200191611097565b820191906000526020600020905b81548152906001019060200180831161107a57829003601f168201915b505050505091509550955095509550955095509295509295509295565b600460009054906101000a900473ffffffffffffffffffffffffffffffffffffffff1673ffffffffffffffffffffffffffffffffffffffff163373ffffffffffffffffffffffffffffffffffffffff1614611144576040517f08c379a000000000000000000000000000000000000000000000000000000000815260040161113b90613529565b60405180910390fd5b6000600a6000838152602001908152602001600020600101541161119d576040517f08c379a0000000000000000000000000000000000000000000000000000000008152600401611194906132ad565b60405180910390fd5b60001515600a600083815260200190815260200160002060030160009054906101000a900460ff16151503611207576040517f08c379a00000000000000000000000000000000000000000000000000000000081526004016111fe906135bb565b60405180910390fd5b60001515600a600083815260200190815260200160002060030160019054906101000a900460ff16151503611271576040517f08c379a000000000000000000000000000000000000000000000000000000000815260040161126890613627565b60405180910390fd5b60001515600a600083815260200190815260200160002060030160029054906101000a900460ff161515036112db576040517f08c379a00000000000000000000000000000000000000000000000000000000081526004016112d290613693565b60405180910390fd5b600015156007600083815260200190815260200160002060009054906101000a900460ff16151503611342576040517f08c379a0000000000000000000000000000000000000000000000000000000008152600401611339906136ff565b60405180910390fd5b600015156008600083815260200190815260200160002060009054906101000a900460ff161515036113a9576040517f08c379a00000000000000000000000000000000000000000000000000000000081526004016113a09061376b565b60405180910390fd5b6001600a600083815260200190815260200160002060030160046101000a81548160ff02191690831515021790555050565b600460009054906101000a900473ffffffffffffffffffffffffffffffffffffffff1673ffffffffffffffffffffffffffffffffffffffff163373ffffffffffffffffffffffffffffffffffffffff161461146b576040517f08c379a000000000000000000000000000000000000000000000000000000000815260040161146290613529565b60405180910390fd5b6009600082815260200190815260200160002060090160009054906101000a900460ff166114ce576040517f08c379a00000000000000000000000000000000000000000000000000000000081526004016114c5906137d7565b60405180910390fd5b6000600660009054906101000a900473ffffffffffffffffffffffffffffffffffffffff1673ffffffffffffffffffffffffffffffffffffffff16637ef05974836040518263ffffffff1660e01b815260040161152b9190612fe4565b6020604051808303816000875af115801561154a573d6000803e3d6000fd5b505050506040513d601f19601f8201168201806040525081019061156e91906137f7565b90506009600083815260200190815260200160002060040160009054906101000a900473ffffffffffffffffffffffffffffffffffffffff16600260006101000a81548173ffffffffffffffffffffffffffffffffffffffff021916908373ffffffffffffffffffffffffffffffffffffffff160217905550600260009054906101000a900473ffffffffffffffffffffffffffffffffffffffff1673ffffffffffffffffffffffffffffffffffffffff16638f348385836009600086815260200190815260200160002060030160009054906101000a900473ffffffffffffffffffffffffffffffffffffffff166003546040518463ffffffff1660e01b815260040161167e93929190613824565b600060405180830381600087803b15801561169857600080fd5b505af11580156116ac573d6000803e3d6000fd5b50505050604051806101000160405280600354815260200183815260200182815260200160011515815260200160001515815260200160001515815260200160001515815260200160001515815250600a6000600354815260200190815260200160002060008201518160000155602082015181600101556040820151816002015560608201518160030160006101000a81548160ff02191690831515021790555060808201518160030160016101000a81548160ff02191690831515021790555060a08201518160030160026101000a81548160ff02191690831515021790555060c08201518160030160036101000a81548160ff02191690831515021790555060e08201518160030160046101000a81548160ff021916908315150217905550905050600360008154809291906117e49061388a565b91905055505050565b60086020528060005260406000206000915054906101000a900460ff1681565b600460009054906101000a900473ffffffffffffffffffffffffffffffffffffffff1673ffffffffffffffffffffffffffffffffffffffff163373ffffffffffffffffffffffffffffffffffffffff161461189d576040517f08c379a000000000000000000000000000000000000000000000000000000000815260040161189490613529565b60405180910390fd5b6000600a600083815260200190815260200160002060010154116118f6576040517f08c379a00000000000000000000000000000000000000000000000000000000081526004016118ed906132ad565b60405180910390fd5b600a600082815260200190815260200160002060030160009054906101000a900460ff16611959576040517f08c379a00000000000000000000000000000000000000000000000000000000081526004016119509061391e565b60405180910390fd5b6001600a600083815260200190815260200160002060030160016101000a81548160ff02191690831515021790555050565b600460009054906101000a900473ffffffffffffffffffffffffffffffffffffffff1673ffffffffffffffffffffffffffffffffffffffff163373ffffffffffffffffffffffffffffffffffffffff1614611a1b576040517f08c379a0000000000000000000000000000000000000000000000000000000008152600401611a1290613529565b60405180910390fd5b60001515600a600083815260200190815260200160002060030160009054906101000a900460ff16151503611a85576040517f08c379a0000000000000000000000000000000000000000000000000000000008152600401611a7c906135bb565b60405180910390fd5b60001515600a600083815260200190815260200160002060030160019054906101000a900460ff16151503611aef576040517f08c379a0000000000000000000000000000000000000000000000000000000008152600401611ae690613627565b60405180910390fd5b60011515600a600083815260200190815260200160002060030160039054906101000a900460ff16151503611b59576040517f08c379a0000000000000000000000000000000000000000000000000000000008152600401611b509061398a565b60405180910390fd5b6000600a600083815260200190815260200160002060010154905060008054906101000a900473ffffffffffffffffffffffffffffffffffffffff1673ffffffffffffffffffffffffffffffffffffffff166344de790083306009600086815260200190815260200160002060020160009054906101000a900473ffffffffffffffffffffffffffffffffffffffff166040518463ffffffff1660e01b8152600401611c07939291906139aa565b6020604051808303816000875af1158015611c26573d6000803e3d6000fd5b505050506040513d601f19601f82011682018060405250810190611c4a91906139e1565b600a600084815260200190815260200160002060030160026101000a81548160ff0219169083151502179055505050565b6000600a60008581526020019081526020016000206001015411611cd4576040517f08c379a0000000000000000000000000000000000000000000000000000000008152600401611ccb90612dc8565b60405180910390fd5b60001515600a600085815260200190815260200160002060030160019054906101000a900460ff16151503611d3e576040517f08c379a0000000000000000000000000000000000000000000000000000000008152600401611d3590613a5a565b60405180910390fd5b600160009054906101000a900473ffffffffffffffffffffffffffffffffffffffff1673ffffffffffffffffffffffffffffffffffffffff163373ffffffffffffffffffffffffffffffffffffffff1614611dce576040517f08c379a0000000000000000000000000000000000000000000000000000000008152600401611dc590612e34565b60405180910390fd5b3073ffffffffffffffffffffffffffffffffffffffff168273ffffffffffffffffffffffffffffffffffffffff1614611e3c576040517f08c379a0000000000000000000000000000000000000000000000000000000008152600401611e3390612ea0565b60405180910390fd5b6000600a60008581526020019081526020016000206001015490506009600082815260200190815260200160002060020160009054906101000a900473ffffffffffffffffffffffffffffffffffffffff1673ffffffffffffffffffffffffffffffffffffffff168273ffffffffffffffffffffffffffffffffffffffff1614611efb576040517f08c379a0000000000000000000000000000000000000000000000000000000008152600401611ef290613aec565b60405180910390fd5b600a600085815260200190815260200160002060030160029054906101000a900460ff16611f5e576040517f08c379a0000000000000000000000000000000000000000000000000000000008152600401611f5590612fc4565b60405180910390fd5b60016007600086815260200190815260200160002060006101000a81548160ff02191690831515021790555050505050565b600460009054906101000a900473ffffffffffffffffffffffffffffffffffffffff1673ffffffffffffffffffffffffffffffffffffffff163373ffffffffffffffffffffffffffffffffffffffff1614612020576040517f08c379a000000000000000000000000000000000000000000000000000000000815260040161201790613529565b60405180910390fd5b60001515600a600083815260200190815260200160002060030160009054906101000a900460ff1615150361208a576040517f08c379a0000000000000000000000000000000000000000000000000000000008152600401612081906135bb565b60405180910390fd5b60001515600a600083815260200190815260200160002060030160019054906101000a900460ff161515036120f4576040517f08c379a00000000000000000000000000000000000000000000000000000000081526004016120eb90613627565b60405180910390fd5b60001515600a600083815260200190815260200160002060030160029054906101000a900460ff1615150361215e576040517f08c379a000000000000000000000000000000000000000000000000000000000815260040161215590613693565b60405180910390fd5b60008060009054906101000a900473ffffffffffffffffffffffffffffffffffffffff1673ffffffffffffffffffffffffffffffffffffffff1663326b026f836040518263ffffffff1660e01b81526004016121ba9190612fe4565b60a060405180830381865afa1580156121d7573d6000803e3d6000fd5b505050506040513d601f19601f820116820180604052508101906121fb9190613b0c565b50505091505080612241576040517f08c379a000000000000000000000000000000000000000000000000000000000815260040161223890613bd3565b60405180910390fd5b6000600a600084815260200190815260200160002060010154905060008054906101000a900473ffffffffffffffffffffffffffffffffffffffff1673ffffffffffffffffffffffffffffffffffffffff1663873dbcbc84306009600086815260200190815260200160002060030160009054906101000a900473ffffffffffffffffffffffffffffffffffffffff166040518463ffffffff1660e01b81526004016122ef939291906139aa565b6020604051808303816000875af115801561230e573d6000803e3d6000fd5b505050506040513d601f19601f8201168201806040525081019061233291906139e1565b600a600085815260200190815260200160002060030160036101000a81548160ff021916908315150217905550505050565b600460009054906101000a900473ffffffffffffffffffffffffffffffffffffffff1673ffffffffffffffffffffffffffffffffffffffff163373ffffffffffffffffffffffffffffffffffffffff16146123f4576040517f08c379a00000000000000000000000000000000000000000000000000000000081526004016123eb90613529565b60405180910390fd5b600073ffffffffffffffffffffffffffffffffffffffff168173ffffffffffffffffffffffffffffffffffffffff1603612463576040517f08c379a000000000000000000000000000000000000000000000000000000000815260040161245a90613c3f565b60405180910390fd5b80600160006101000a81548173ffffffffffffffffffffffffffffffffffffffff021916908373ffffffffffffffffffffffffffffffffffffffff160217905550806000806101000a81548173ffffffffffffffffffffffffffffffffffffffff021916908373ffffffffffffffffffffffffffffffffffffffff16021790555050565b6000806000600115156009600088815260200190815260200160002060090160009054906101000a900460ff16151503612556576040517f08c379a000000000000000000000000000000000000000000000000000000000815260040161254d90613cab565b60405180910390fd5b600033905085600660006101000a81548173ffffffffffffffffffffffffffffffffffffffff021916908373ffffffffffffffffffffffffffffffffffffffff160217905550600080600080600080600660009054906101000a900473ffffffffffffffffffffffffffffffffffffffff1673ffffffffffffffffffffffffffffffffffffffff1663a9cd06cd8e8d6040518363ffffffff1660e01b8152600401612602929190613ccb565b6000604051808303816000875af1158015612621573d6000803e3d6000fd5b505050506040513d6000823e3d601f19601f8201168201806040525081019061264a9190613d20565b95509550955095509550955060008603612699576040517f08c379a000000000000000000000000000000000000000000000000000000000815260040161269090613e4d565b60405180910390fd5b6001600b60008f815260200190815260200160002060008773ffffffffffffffffffffffffffffffffffffffff1673ffffffffffffffffffffffffffffffffffffffff16815260200190815260200160002060006101000a81548160ff0219169083151502179055506040518061014001604052808e81526020018781526020018d73ffffffffffffffffffffffffffffffffffffffff1681526020018673ffffffffffffffffffffffffffffffffffffffff1681526020018873ffffffffffffffffffffffffffffffffffffffff1681526020018581526020018364ffffffffff16815260200184815260200182815260200160011515815250600960008f8152602001908152602001600020600082015181600001556020820151816001015560408201518160020160006101000a81548173ffffffffffffffffffffffffffffffffffffffff021916908373ffffffffffffffffffffffffffffffffffffffff16021790555060608201518160030160006101000a81548173ffffffffffffffffffffffffffffffffffffffff021916908373ffffffffffffffffffffffffffffffffffffffff16021790555060808201518160040160006101000a81548173ffffffffffffffffffffffffffffffffffffffff021916908373ffffffffffffffffffffffffffffffffffffffff16021790555060a08201518160050190816128a59190614019565b5060c08201518160060160006101000a81548164ffffffffff021916908364ffffffffff16021790555060e08201518160070190816128e49190614019565b506101008201518160080190816128fb9190614019565b506101208201518160090160006101000a81548160ff0219169083151502179055509050506001600554600460009054906101000a900473ffffffffffffffffffffffffffffffffffffffff169950995099505050505050505093509350939050565b6000604051905090565b600080fd5b600080fd5b6000819050919050565b61298581612972565b811461299057600080fd5b50565b6000813590506129a28161297c565b92915050565b600073ffffffffffffffffffffffffffffffffffffffff82169050919050565b60006129d3826129a8565b9050919050565b6129e3816129c8565b81146129ee57600080fd5b50565b600081359050612a00816129da565b92915050565b600080600060608486031215612a1f57612a1e612968565b5b6000612a2d86828701612993565b9350506020612a3e868287016129f1565b9250506040612a4f868287016129f1565b9150509250925092565b600060208284031215612a6f57612a6e612968565b5b6000612a7d84828501612993565b91505092915050565b612a8f81612972565b82525050565b60008115159050919050565b612aaa81612a95565b82525050565b600061010082019050612ac6600083018b612a86565b612ad3602083018a612a86565b612ae06040830189612a86565b612aed6060830188612aa1565b612afa6080830187612aa1565b612b0760a0830186612aa1565b612b1460c0830185612aa1565b612b2160e0830184612aa1565b9998505050505050505050565b6000602082019050612b436000830184612aa1565b92915050565b600081519050919050565b600082825260208201905092915050565b60005b83811015612b83578082015181840152602081019050612b68565b60008484015250505050565b6000601f19601f8301169050919050565b6000612bab82612b49565b612bb58185612b54565b9350612bc5818560208601612b65565b612bce81612b8f565b840191505092915050565b600060a082019050612bee6000830188612a86565b612bfb6020830187612a86565b612c086040830186612a86565b612c156060830185612aa1565b8181036080830152612c278184612ba0565b90509695505050505050565b60008060408385031215612c4a57612c49612968565b5b6000612c5885828601612993565b9250506020612c69858286016129f1565b9150509250929050565b600064ffffffffff82169050919050565b612c8d81612c73565b82525050565b600060c082019050612ca86000830189612a86565b8181036020830152612cba8188612ba0565b9050612cc96040830187612c84565b8181036060830152612cdb8186612ba0565b90508181036080830152612cef8185612ba0565b9050612cfe60a0830184612aa1565b979650505050505050565b600060208284031215612d1f57612d1e612968565b5b6000612d2d848285016129f1565b91505092915050565b612d3f816129c8565b82525050565b6000606082019050612d5a6000830186612aa1565b612d676020830185612a86565b612d746040830184612d36565b949350505050565b7f46726569676874657220496e76616c6964204578706f72740000000000000000600082015250565b6000612db2601883612b54565b9150612dbd82612d7c565b602082019050919050565b60006020820190508181036000830152612de181612da5565b9050919050565b7f4e6f7420506f727420436c656172616e6365417574686f726974790000000000600082015250565b6000612e1e601b83612b54565b9150612e2982612de8565b602082019050919050565b60006020820190508181036000830152612e4d81612e11565b9050919050565b7f4c6f676973746963732041646472657373204d69736d61746368000000000000600082015250565b6000612e8a601a83612b54565b9150612e9582612e54565b602082019050919050565b60006020820190508181036000830152612eb981612e7d565b9050919050565b7f566572696669636174696f6e204661696c656420666f7220627579657220416460008201527f6472657373000000000000000000000000000000000000000000000000000000602082015250565b6000612f1c602583612b54565b9150612f2782612ec0565b604082019050919050565b60006020820190508181036000830152612f4b81612f0f565b9050919050565b7f4578706f7274204f72646572204e6f742041727269766564206174206578706f60008201527f727420706f727400000000000000000000000000000000000000000000000000602082015250565b6000612fae602783612b54565b9150612fb982612f52565b604082019050919050565b60006020820190508181036000830152612fdd81612fa1565b9050919050565b6000602082019050612ff96000830184612a86565b92915050565b60008151905061300e8161297c565b92915050565b600080fd5b600080fd5b7f4e487b7100000000000000000000000000000000000000000000000000000000600052604160045260246000fd5b61305682612b8f565b810181811067ffffffffffffffff821117156130755761307461301e565b5b80604052505050565b600061308861295e565b9050613094828261304d565b919050565b600067ffffffffffffffff8211156130b4576130b361301e565b5b6130bd82612b8f565b9050602081019050919050565b60006130dd6130d884613099565b61307e565b9050828152602081018484840111156130f9576130f8613019565b5b613104848285612b65565b509392505050565b600082601f83011261312157613120613014565b5b81516131318482602086016130ca565b91505092915050565b600081519050613149816129da565b92915050565b61315881612a95565b811461316357600080fd5b50565b6000815190506131758161314f565b92915050565b60008060008060008060008060006101208a8c03121561319e5761319d612968565b5b60006131ac8c828d01612fff565b99505060206131bd8c828d01612fff565b98505060408a015167ffffffffffffffff8111156131de576131dd61296d565b5b6131ea8c828d0161310c565b97505060606131fb8c828d01612fff565b965050608061320c8c828d0161313a565b95505060a061321d8c828d0161313a565b94505060c061322e8c828d01613166565b93505060e061323f8c828d01613166565b9250506101006132518c828d01613166565b9150509295985092959850929598565b7f467265696768746572204e6f7420426f6f6b6564000000000000000000000000600082015250565b6000613297601483612b54565b91506132a282613261565b602082019050919050565b600060208201905081810360008301526132c68161328a565b9050919050565b7f4e6f204f726465727320417661696c61626c6520696e2053656c6c6572000000600082015250565b6000613303601d83612b54565b915061330e826132cd565b602082019050919050565b60006020820190508181036000830152613332816132f6565b9050919050565b7f4f72646572204e6f74205061636b656400000000000000000000000000000000600082015250565b600061336f601083612b54565b915061337a82613339565b602082019050919050565b6000602082019050818103600083015261339e81613362565b9050919050565b7f4f72646572204e6f742048616e6465644f766572000000000000000000000000600082015250565b60006133db601483612b54565b91506133e6826133a5565b602082019050919050565b6000602082019050818103600083015261340a816133ce565b9050919050565b7f4e6f7420417574686f72697a656420746f205669657700000000000000000000600082015250565b6000613447601683612b54565b915061345282613411565b602082019050919050565b600060208201905081810360008301526134768161343a565b9050919050565b7f4e487b7100000000000000000000000000000000000000000000000000000000600052602260045260246000fd5b600060028204905060018216806134c457607f821691505b6020821081036134d7576134d661347d565b5b50919050565b7f4e6f742046726569676874657200000000000000000000000000000000000000600082015250565b6000613513600d83612b54565b915061351e826134dd565b602082019050919050565b6000602082019050818103600083015261354281613506565b9050919050565b7f50726f64756374204e65656420746f206265207069636b65647570206669727360008201527f7400000000000000000000000000000000000000000000000000000000000000602082015250565b60006135a5602183612b54565b91506135b082613549565b604082019050919050565b600060208201905081810360008301526135d481613598565b9050919050565b7f64656c6976657279206e6f742073746172746564000000000000000000000000600082015250565b6000613611601483612b54565b915061361c826135db565b602082019050919050565b6000602082019050818103600083015261364081613604565b9050919050565b7f4e6f74207965742041727269766564206174206578706f727420706f72742100600082015250565b600061367d601f83612b54565b915061368882613647565b602082019050919050565b600060208201905081810360008301526136ac81613670565b9050919050565b7f4578706f7274206e6f7420636c65617265642079657400000000000000000000600082015250565b60006136e9601683612b54565b91506136f4826136b3565b602082019050919050565b60006020820190508181036000830152613718816136dc565b9050919050565b7f696d706f7274204e6f7420636c65617265642079657400000000000000000000600082015250565b6000613755601683612b54565b91506137608261371f565b602082019050919050565b6000602082019050818103600083015261378481613748565b9050919050565b7f467265696768746572204e6f7420426f6f6b656420666f72206578706f727400600082015250565b60006137c1601f83612b54565b91506137cc8261378b565b602082019050919050565b600060208201905081810360008301526137f0816137b4565b9050919050565b60006020828403121561380d5761380c612968565b5b600061381b84828501612fff565b91505092915050565b60006060820190506138396000830186612a86565b6138466020830185612d36565b6138536040830184612a86565b949350505050565b7f4e487b7100000000000000000000000000000000000000000000000000000000600052601160045260246000fd5b600061389582612972565b91507fffffffffffffffffffffffffffffffffffffffffffffffffffffffffffffffff82036138c7576138c661385b565b5b600182019050919050565b7f50726f64756374204e6f742068616e646564204f766572000000000000000000600082015250565b6000613908601783612b54565b9150613913826138d2565b602082019050919050565b60006020820190508181036000830152613937816138fb565b9050919050565b7f416c7265616479206172726976656420617420696d706f727420706f72740000600082015250565b6000613974601e83612b54565b915061397f8261393e565b602082019050919050565b600060208201905081810360008301526139a381613967565b9050919050565b60006060820190506139bf6000830186612a86565b6139cc6020830185612d36565b6139d96040830184612d36565b949350505050565b6000602082840312156139f7576139f6612968565b5b6000613a0584828501613166565b91505092915050565b7f4578706f72742053686970706d656e742070656e64696e670000000000000000600082015250565b6000613a44601883612b54565b9150613a4f82613a0e565b602082019050919050565b60006020820190508181036000830152613a7381613a37565b9050919050565b7f566572696669636174696f6e204661696c656420666f722053656c6c6572204160008201527f6464726573730000000000000000000000000000000000000000000000000000602082015250565b6000613ad6602683612b54565b9150613ae182613a7a565b604082019050919050565b60006020820190508181036000830152613b0581613ac9565b9050919050565b600080600080600060a08688031215613b2857613b27612968565b5b6000613b3688828901613166565b9550506020613b4788828901613166565b9450506040613b588882890161313a565b9350506060613b698882890161313a565b9250506080613b7a88828901612fff565b9150509295509295909350565b7f4578706f727420436c656172616e63652066616c736500000000000000000000600082015250565b6000613bbd601683612b54565b9150613bc882613b87565b602082019050919050565b60006020820190508181036000830152613bec81613bb0565b9050919050565b7f496e76616c696420436c656172616e636520506f727420416464726573730000600082015250565b6000613c29601e83612b54565b9150613c3482613bf3565b602082019050919050565b60006020820190508181036000830152613c5881613c1c565b9050919050565b7f46726569676874657220416c726561647920426f6f6b65640000000000000000600082015250565b6000613c95601883612b54565b9150613ca082613c5f565b602082019050919050565b60006020820190508181036000830152613cc481613c88565b9050919050565b6000604082019050613ce06000830185612a86565b613ced6020830184612d36565b9392505050565b613cfd81612c73565b8114613d0857600080fd5b50565b600081519050613d1a81613cf4565b92915050565b60008060008060008060c08789031215613d3d57613d3c612968565b5b6000613d4b89828a01612fff565b9650506020613d5c89828a0161313a565b955050604087015167ffffffffffffffff811115613d7d57613d7c61296d565b5b613d8989828a0161310c565b945050606087015167ffffffffffffffff811115613daa57613da961296d565b5b613db689828a0161310c565b9350506080613dc789828a01613d0b565b92505060a087015167ffffffffffffffff811115613de857613de761296d565b5b613df489828a0161310c565b9150509295509295509295565b7f4275792050726f64756374204669727374000000000000000000000000000000600082015250565b6000613e37601183612b54565b9150613e4282613e01565b602082019050919050565b60006020820190508181036000830152613e6681613e2a565b9050919050565b60008190508160005260206000209050919050565b60006020601f8301049050919050565b600082821b905092915050565b600060088302613ecf7fffffffffffffffffffffffffffffffffffffffffffffffffffffffffffffffff82613e92565b613ed98683613e92565b95508019841693508086168417925050509392505050565b6000819050919050565b6000613f16613f11613f0c84612972565b613ef1565b612972565b9050919050565b6000819050919050565b613f3083613efb565b613f44613f3c82613f1d565b848454613e9f565b825550505050565b600090565b613f59613f4c565b613f64818484613f27565b505050565b5b81811015613f8857613f7d600082613f51565b600181019050613f6a565b5050565b601f821115613fcd57613f9e81613e6d565b613fa784613e82565b81016020851015613fb6578190505b613fca613fc285613e82565b830182613f69565b50505b505050565b600082821c905092915050565b6000613ff060001984600802613fd2565b1980831691505092915050565b60006140098383613fdf565b9150826002028217905092915050565b61402282612b49565b67ffffffffffffffff81111561403b5761403a61301e565b5b61404582546134ac565b614050828285613f8c565b600060209050601f8311600181146140835760008415614071578287015190505b61407b8582613ffd565b8655506140e3565b601f19841661409186613e6d565b60005b828110156140b957848901518255600182019150602085019450602081019050614094565b868310156140d657848901516140d2601f891682613fdf565b8355505b6001600288020188555050505b50505050505056fe5368697070656420616e642064656c697665727920746f206265206174204578706f727420506f727420616e642077696c6c2062652067657474696e67206578706f727420636c656172616e636557696c6c206265204172726976696e6720617420496d706f727420506f727420616e642077696c6c2062652067657474696e6720696d706f727420636c656172616e6365a26469706673582212204fe3e3a05b3fc3419dfd0dfd8185891f700e1004c70a489932be6a0d009d317464736f6c63430008110033",
  "immutableReferences": {},
  "source": "// SPDX-License-Identifier: MIT\r\n\r\nimport \"./Buyer.sol\";\r\n\r\nimport \"./Seller.sol\";\r\n\r\nimport \"./PortClearance.sol\";\r\n\r\npragma solidity ^0.8.0;\r\n\r\ncontract Logistics{\r\n\r\n    PortClearance P;\r\n\r\n    address portClearancecongtractAddress = address(0);\r\n\r\n    Buyer B;\r\n\r\n    uint ExpoCount = 1;\r\n\r\n    address FreightBookingAccount;\r\n\r\n    uint freightCharges = 10000000000000000;\r\n\r\n    Seller s;\r\n\r\n    struct freightBook{\r\n\r\n        uint OID;\r\n\r\n        uint PID;\r\n\r\n        address sellerAddress;\r\n\r\n        address buyerAddress;\r\n\r\n        address buyerContractAddress;\r\n\r\n        string buyerName;\r\n\r\n        uint40 buyerPhone;\r\n\r\n        string deliveryAddress;\r\n\r\n        string buyerEmail;\r\n\r\n        bool freightBooked;\r\n        \r\n    }\r\n\r\n    mapping (uint => bool) public exportCleared;\r\n\r\n    mapping (uint => bool) public importCleared;\r\n\r\n    mapping (uint => freightBook) internal FreightBookings;\r\n\r\n    struct productDelivery{\r\n\r\n        uint ExpoID;\r\n\r\n        uint OID;\r\n\r\n        uint PID;\r\n\r\n        bool productHandedOver;\r\n\r\n        bool deliveryInitiated;\r\n\r\n        bool exportPort;\r\n\r\n        bool importPort;\r\n\r\n        bool delivered;\r\n\r\n    }\r\n\r\n    mapping (uint => productDelivery) public CurrentProductDeliveries;\r\n\r\n    mapping (uint => mapping (address => bool)) internal ValidFreightBooker;\r\n\r\n    constructor (address adr){\r\n\r\n        FreightBookingAccount = adr;\r\n\r\n    }\r\n\r\n    modifier onlyFreighter() {\r\n\r\n        require(msg.sender == FreightBookingAccount,\"Not Freighter\");\r\n        _;\r\n\r\n    }\r\n\r\n    function bookFreight(uint OID, address seller, address _logistics) external returns (bool,uint,address){\r\n\r\n        require(FreightBookings[OID].freightBooked != true, \"Freighter Already Booked\");\r\n\r\n        address buyerContractAddress = msg.sender;\r\n\r\n        s = Seller(seller);\r\n\r\n        (uint PID,address buyerIDAddress,\r\n        string memory buyerName,\r\n        string memory deliveryAddress,\r\n        uint40 buyerPhone,\r\n        string memory buyerEmial) = s.freightValidation(OID,_logistics);\r\n\r\n        require(PID!=0, \"Buy Product First\");\r\n\r\n        ValidFreightBooker[OID][buyerIDAddress] = true;\r\n\r\n        FreightBookings[OID] = freightBook(OID,\r\n        PID,\r\n        seller,\r\n        buyerIDAddress,\r\n        buyerContractAddress,\r\n        buyerName,\r\n        buyerPhone,\r\n        deliveryAddress,\r\n        buyerEmial,\r\n        true);\r\n\r\n        return (true,freightCharges,FreightBookingAccount);\r\n\r\n    }\r\n\r\n    function viewFreightBookings(uint OID, address _caller) external view returns (uint,\r\n        string memory,\r\n        uint40,\r\n        string memory,\r\n        string memory,\r\n        bool){\r\n\r\n        require(ValidFreightBooker[OID][_caller], \"Not Authorized to View\");\r\n\r\n        return (FreightBookings[OID].PID,\r\n\r\n        FreightBookings[OID].buyerName,\r\n\r\n        FreightBookings[OID].buyerPhone,\r\n\r\n        FreightBookings[OID].deliveryAddress,\r\n\r\n        FreightBookings[OID].buyerEmail,\r\n\r\n        FreightBookings[OID].freightBooked);\r\n\r\n    }\r\n\r\n    function pickProductForExport(uint OID) public onlyFreighter {\r\n\r\n        require(FreightBookings[OID].freightBooked, \"Freighter Not Booked for export\");\r\n\r\n        uint pID = s.orderHandOver(OID);\r\n\r\n        B = Buyer(FreightBookings[OID].buyerContractAddress);\r\n\r\n        B.saveExpoID(OID,FreightBookings[OID].buyerAddress,ExpoCount);\r\n\r\n        CurrentProductDeliveries[ExpoCount] = productDelivery(ExpoCount,OID,pID,true,false,false,false,false);\r\n\r\n        ExpoCount++;\r\n\r\n    }\r\n\r\n    function initiateDelivery(uint _ExpoID) public onlyFreighter {\r\n\r\n        require(CurrentProductDeliveries[_ExpoID].OID > 0, \"Freighter Not Booked\");\r\n\r\n        require(CurrentProductDeliveries[_ExpoID].productHandedOver, \"Product Not handed Over\");\r\n\r\n        CurrentProductDeliveries[_ExpoID].deliveryInitiated = true;\r\n\r\n    }\r\n\r\n    function deliveryStatus(uint _ExpoID) external view returns (uint /*ExpoID*/,\r\n        uint, /*OID*/\r\n        uint, /*PID*/\r\n        bool, /*productHandedOver*/\r\n        string memory /*deliveryStatus*/){\r\n\r\n        uint oID = CurrentProductDeliveries[_ExpoID].OID;\r\n\r\n        (,,,,,,bool _ordered,bool _packed,bool _handedOver) = s.Orders(oID);\r\n\r\n        require(FreightBookings[oID].freightBooked, \"Freighter Not Booked\");\r\n\r\n        require(_ordered, \"No Orders Available in Seller\");\r\n\r\n        require(_packed, \"Order Not Packed\");\r\n\r\n        require(_handedOver, \"Order Not HandedOver\");\r\n\r\n\r\n        if(CurrentProductDeliveries[_ExpoID].productHandedOver == false){\r\n            return (CurrentProductDeliveries[_ExpoID].ExpoID,\r\n            CurrentProductDeliveries[_ExpoID].OID,\r\n            CurrentProductDeliveries[_ExpoID].PID,\r\n            CurrentProductDeliveries[_ExpoID].productHandedOver,\r\n            \"Product Not yet Picked-Up\");\r\n        }\r\n\r\n        else if(CurrentProductDeliveries[_ExpoID].deliveryInitiated == false){\r\n            return (CurrentProductDeliveries[_ExpoID].ExpoID,\r\n            CurrentProductDeliveries[_ExpoID].OID,\r\n            CurrentProductDeliveries[_ExpoID].PID,\r\n            CurrentProductDeliveries[_ExpoID].productHandedOver,\r\n            \"Shipping Starts shortly\");\r\n        }\r\n        else if(CurrentProductDeliveries[_ExpoID].exportPort == false){\r\n            return (CurrentProductDeliveries[_ExpoID].ExpoID,\r\n            CurrentProductDeliveries[_ExpoID].OID,\r\n            CurrentProductDeliveries[_ExpoID].PID,\r\n            CurrentProductDeliveries[_ExpoID].productHandedOver,\r\n            \"Shipped and delivery to be at Export Port and will be getting export clearance\");\r\n        }\r\n        else if(CurrentProductDeliveries[_ExpoID].importPort == false){\r\n            return (CurrentProductDeliveries[_ExpoID].ExpoID,\r\n            CurrentProductDeliveries[_ExpoID].OID,\r\n            CurrentProductDeliveries[_ExpoID].PID,\r\n            CurrentProductDeliveries[_ExpoID].productHandedOver,\r\n            \"Will be Arriving at Import Port and will be getting import clearance\");\r\n        }\r\n        else if(CurrentProductDeliveries[_ExpoID].delivered == false){\r\n            return (CurrentProductDeliveries[_ExpoID].ExpoID,\r\n            CurrentProductDeliveries[_ExpoID].OID,\r\n            CurrentProductDeliveries[_ExpoID].PID,\r\n            CurrentProductDeliveries[_ExpoID].productHandedOver,\r\n            \"Out for Delivery\");\r\n        }\r\n        else if(CurrentProductDeliveries[_ExpoID].delivered == true){\r\n            return (CurrentProductDeliveries[_ExpoID].ExpoID,\r\n            CurrentProductDeliveries[_ExpoID].OID,\r\n            CurrentProductDeliveries[_ExpoID].PID,\r\n            CurrentProductDeliveries[_ExpoID].productHandedOver,\r\n            \"Delivered\");\r\n        }\r\n        else\r\n        {\r\n            return (0,\r\n            0,\r\n            0,\r\n            false,\r\n            \"Something went wrong!\");\r\n        }\r\n    }\r\n\r\n    function chooseClearncePort(address _ClearancePortContract) public onlyFreighter{\r\n\r\n        require(_ClearancePortContract != address(0), \"Invalid Clearance Port Address\");\r\n\r\n        portClearancecongtractAddress = _ClearancePortContract;\r\n\r\n        P = PortClearance(_ClearancePortContract);\r\n\r\n    }\r\n\r\n\r\n    //Export Port Arrival\r\n    function sourcePortArrival(uint _ExpoID) public onlyFreighter{\r\n\r\n        require(CurrentProductDeliveries[_ExpoID].productHandedOver != false, \"Product Need to be pickedup first\");\r\n\r\n        require(CurrentProductDeliveries[_ExpoID].deliveryInitiated != false, \"delivery not started\");\r\n\r\n        require(CurrentProductDeliveries[_ExpoID].importPort != true, \"Already arrived at import port\");\r\n\r\n        uint oID = CurrentProductDeliveries[_ExpoID].OID;\r\n\r\n        CurrentProductDeliveries[_ExpoID].exportPort = P.exportPortArrival(_ExpoID,address(this),FreightBookings[oID].sellerAddress);\r\n\r\n    }\r\n\r\n     //Import Port Arrival\r\n    function destinationPortArrival(uint _ExpoID) public onlyFreighter{\r\n\r\n        require(CurrentProductDeliveries[_ExpoID].productHandedOver != false, \"Product Need to be pickedup first\");\r\n\r\n        require(CurrentProductDeliveries[_ExpoID].deliveryInitiated != false, \"delivery not started\");\r\n\r\n        require(CurrentProductDeliveries[_ExpoID].exportPort != false, \"Not yet Arrived at export port!\");\r\n\r\n        (,bool expoCleared,,,)=P.exportClearances(_ExpoID);\r\n\r\n        require(expoCleared, \"Export Clearance false\");\r\n\r\n        uint oID = CurrentProductDeliveries[_ExpoID].OID;\r\n\r\n        CurrentProductDeliveries[_ExpoID].importPort = P.importPortArrival(_ExpoID, address(this),FreightBookings[oID].buyerAddress);\r\n            \r\n    }\r\n\r\n\r\n    //Export Port Arrival\r\n    // function sourcePortArrival(uint _ExpoID) public onlyFreighter{\r\n\r\n    //     require(CurrentProductDeliveries[_ExpoID].OID > 0, \"Freighter Not Booked\");\r\n\r\n    //     require(CurrentProductDeliveries[_ExpoID].productHandedOver != false, \"Product Need to be pickedup first\");\r\n\r\n    //     require(CurrentProductDeliveries[_ExpoID].deliveryInitiated != false, \"delivery not started\");\r\n\r\n    //     require(CurrentProductDeliveries[_ExpoID].importPort != true, \"Already arrived at import port\");\r\n\r\n    //     uint oID = CurrentProductDeliveries[_ExpoID].OID;\r\n\r\n    //     CurrentProductDeliveries[_ExpoID].exportPort = P.exportPortArrival(_ExpoID,address(this),FreightBookings[oID].sellerAddress);\r\n\r\n    // }\r\n\r\n    //Import Port Arrival\r\n    // function destinationPortArrival(uint _ExpoID) public onlyFreighter{\r\n\r\n    //     require(CurrentProductDeliveries[_ExpoID].OID > 0, \"Freighter Not Booked\");\r\n\r\n    //     require(CurrentProductDeliveries[_ExpoID].productHandedOver != false, \"Product Need to be pickedup first\");\r\n\r\n    //     require(CurrentProductDeliveries[_ExpoID].deliveryInitiated != false, \"delivery not started\");\r\n\r\n    //     require(CurrentProductDeliveries[_ExpoID].exportPort != false, \"Not yet Arrived at export port!\");\r\n\r\n    //     require(exportCleared[_ExpoID] != false, \"Export not cleared yet\");\r\n\r\n    //     (,bool expoCleared,,,)=P.exportClearances(_ExpoID);\r\n\r\n    //     require(expoCleared, \"Export Clearance false\");\r\n\r\n    //     uint oID = CurrentProductDeliveries[_ExpoID].OID;\r\n\r\n    //     CurrentProductDeliveries[_ExpoID].importPort = P.importPortArrival(_ExpoID, address(this),FreightBookings[oID].buyerAddress);\r\n            \r\n    // }\r\n\r\n    function deliver(uint _ExpoID) public onlyFreighter {\r\n        \r\n        require(CurrentProductDeliveries[_ExpoID].OID > 0, \"Freighter Not Booked\");\r\n\r\n        require(CurrentProductDeliveries[_ExpoID].productHandedOver != false, \"Product Need to be pickedup first\");\r\n\r\n        require(CurrentProductDeliveries[_ExpoID].deliveryInitiated != false, \"delivery not started\");\r\n\r\n        require(CurrentProductDeliveries[_ExpoID].exportPort != false, \"Not yet Arrived at export port!\");\r\n\r\n        require(exportCleared[_ExpoID] != false, \"Export not cleared yet\");\r\n\r\n        require(importCleared[_ExpoID] != false, \"import Not cleared yet\");\r\n\r\n        CurrentProductDeliveries[_ExpoID].delivered = true;\r\n\r\n    }\r\n\r\n    function exportVerifiction(uint _expoID, address _Logistics, address _seller) external {\r\n\r\n        require(CurrentProductDeliveries[_expoID].OID > 0, \"Freighter Invalid Export\");\r\n\r\n        require(CurrentProductDeliveries[_expoID].deliveryInitiated != false, \"Export Shippment pending\");\r\n\r\n        require(msg.sender == portClearancecongtractAddress, \"Not Port ClearanceAuthority\");\r\n\r\n        require(_Logistics == address(this), \"Logistics Address Mismatch\");\r\n\r\n        uint oID = CurrentProductDeliveries[_expoID].OID;\r\n\r\n        require(_seller == FreightBookings[oID].sellerAddress, \"Verification Failed for Seller Address\");\r\n\r\n        require(CurrentProductDeliveries[_expoID].exportPort, \"Export Order Not Arrived at export port\");\r\n\r\n        exportCleared[_expoID] = true;\r\n\r\n    }\r\n\r\n    function importVerifiction(uint _expoID, address _Logistics, address _buyer) external {\r\n\r\n        require(CurrentProductDeliveries[_expoID].OID > 0, \"Freighter Invalid Export\");\r\n\r\n        require(msg.sender == portClearancecongtractAddress, \"Not Port ClearanceAuthority\");\r\n\r\n        require(_Logistics == address(this), \"Logistics Address Mismatch\");\r\n\r\n        uint oID = CurrentProductDeliveries[_expoID].OID;\r\n\r\n        require(_buyer == FreightBookings[oID].buyerAddress, \"Verification Failed for buyer Address\");\r\n\r\n        require(CurrentProductDeliveries[_expoID].importPort, \"Export Order Not Arrived at export port\");\r\n\r\n        importCleared[_expoID] = true;\r\n\r\n    }\r\n\r\n\r\n}\r\n\r\n\r\n\r\n\r\n\r\n\r\n\r\n\r\n\r\n\r\n// import \"./Seller.sol\";\r\n\r\n// pragma solidity ^0.8.0;\r\n\r\n// contract Logistics{\r\n\r\n//     address FreightBookingAccount;\r\n\r\n//     uint freightCharges = 10000000000000000;\r\n\r\n//     Seller s;\r\n\r\n//     struct freightBook{\r\n\r\n//         uint OID;\r\n\r\n//         address buyerAddress;\r\n\r\n//         string buyerName;\r\n\r\n//         uint40 buyerPhone;\r\n\r\n//         string deliveryAddress;\r\n\r\n//         string buyerEmail;\r\n\r\n//         bool freightBooked;\r\n        \r\n//     }\r\n\r\n//     mapping (uint => freightBook) internal FreightBookings;\r\n\r\n//     mapping (uint => mapping (address => bool)) internal ValidFreightBooker;\r\n\r\n//     constructor (address adr){\r\n\r\n//         FreightBookingAccount = adr;\r\n\r\n//     }\r\n\r\n//     function bookFreight(uint OID, address seller) external returns (bool,uint,address){\r\n\r\n//         require(FreightBookings[OID].freightBooked != true, \"Freighter Already Booked\");\r\n\r\n//         s = Seller(seller);\r\n\r\n//         (address buyerIDAddress,\r\n//         string memory buyerName,\r\n//         string memory deliveryAddress,\r\n//         uint40 buyerPhone,\r\n//         string memory buyerEmial) = s.freightValidation(OID);\r\n\r\n//         ValidFreightBooker[OID][buyerIDAddress] = true;\r\n\r\n//         FreightBookings[OID] = freightBook(OID,\r\n//         buyerIDAddress,\r\n//         buyerName,\r\n//         buyerPhone,\r\n//         deliveryAddress,\r\n//         buyerEmial,\r\n//         true);\r\n\r\n//         return (true,freightCharges,FreightBookingAccount);\r\n\r\n//     }\r\n\r\n//     function viewFreightBookings(uint OID, address _caller) external view returns (uint,\r\n//         string memory,\r\n//         uint40,\r\n//         string memory,\r\n//         string memory,\r\n//         bool){\r\n\r\n//         require(ValidFreightBooker[OID][_caller], \"Not Authorized to View\");\r\n\r\n//         return (FreightBookings[OID].OID,\r\n\r\n//         FreightBookings[OID].buyerName,\r\n\r\n//         FreightBookings[OID].buyerPhone,\r\n\r\n//         FreightBookings[OID].deliveryAddress,\r\n\r\n//         FreightBookings[OID].buyerEmail,\r\n\r\n//         FreightBookings[OID].freightBooked);\r\n\r\n//     }\r\n\r\n// }",
  "sourcePath": "C:\\Users\\sakha\\OneDrive\\Desktop\\Logistics_Tracing_Application\\contracts\\Logistics.sol",
  "compiler": {
    "name": "solc",
    "version": "0.8.17+commit.8df45f5f.Emscripten.clang"
  },
  "schemaVersion": "3.4.10",
  "updatedAt": "2022-10-21T09:18:36.906Z",
  "networkType": "ethereum",
  "devdoc": {
    "kind": "dev",
    "methods": {},
    "version": 1
  },
  "userdoc": {
    "kind": "user",
    "methods": {},
    "version": 1
  }
}