{
  "contractName": "PortClearance",
  "abi": [
    {
      "inputs": [
        {
          "internalType": "address",
          "name": "_ExportClearanceAuthority",
          "type": "address"
        },
        {
          "internalType": "address",
          "name": "_importClearanceAuthority",
          "type": "address"
        }
      ],
      "stateMutability": "nonpayable",
      "type": "constructor"
    },
    {
      "inputs": [
        {
          "internalType": "uint256",
          "name": "",
          "type": "uint256"
        }
      ],
      "name": "exportClearances",
      "outputs": [
        {
          "internalType": "bool",
          "name": "arrival",
          "type": "bool"
        },
        {
          "internalType": "bool",
          "name": "cleared",
          "type": "bool"
        },
        {
          "internalType": "address",
          "name": "LogisticsAddress",
          "type": "address"
        },
        {
          "internalType": "address",
          "name": "sellerAddress",
          "type": "address"
        },
        {
          "internalType": "uint256",
          "name": "ExpoID",
          "type": "uint256"
        }
      ],
      "stateMutability": "view",
      "type": "function",
      "constant": true
    },
    {
      "inputs": [
        {
          "internalType": "uint256",
          "name": "",
          "type": "uint256"
        }
      ],
      "name": "importClearances",
      "outputs": [
        {
          "internalType": "bool",
          "name": "arrival",
          "type": "bool"
        },
        {
          "internalType": "bool",
          "name": "cleared",
          "type": "bool"
        },
        {
          "internalType": "address",
          "name": "LogisticsAddress",
          "type": "address"
        },
        {
          "internalType": "address",
          "name": "buyerAddress",
          "type": "address"
        },
        {
          "internalType": "uint256",
          "name": "ExpoID",
          "type": "uint256"
        }
      ],
      "stateMutability": "view",
      "type": "function",
      "constant": true
    },
    {
      "inputs": [
        {
          "internalType": "uint256",
          "name": "ExpoID",
          "type": "uint256"
        },
        {
          "internalType": "address",
          "name": "_LogisticsContractAddress",
          "type": "address"
        },
        {
          "internalType": "address",
          "name": "_SellerAddress",
          "type": "address"
        }
      ],
      "name": "exportPortArrival",
      "outputs": [
        {
          "internalType": "bool",
          "name": "",
          "type": "bool"
        }
      ],
      "stateMutability": "nonpayable",
      "type": "function"
    },
    {
      "inputs": [
        {
          "internalType": "uint256",
          "name": "ExpoID",
          "type": "uint256"
        },
        {
          "internalType": "address",
          "name": "_LogisticsContractAddress",
          "type": "address"
        },
        {
          "internalType": "address",
          "name": "_buyerAddress",
          "type": "address"
        }
      ],
      "name": "importPortArrival",
      "outputs": [
        {
          "internalType": "bool",
          "name": "",
          "type": "bool"
        }
      ],
      "stateMutability": "nonpayable",
      "type": "function"
    },
    {
      "inputs": [
        {
          "internalType": "uint256",
          "name": "ExpoID",
          "type": "uint256"
        }
      ],
      "name": "ExportClearance",
      "outputs": [],
      "stateMutability": "nonpayable",
      "type": "function"
    },
    {
      "inputs": [
        {
          "internalType": "uint256",
          "name": "ExpoID",
          "type": "uint256"
        }
      ],
      "name": "importClearance",
      "outputs": [],
      "stateMutability": "nonpayable",
      "type": "function"
    }
  ],
  "bytecode": "0x608060405234801561001057600080fd5b50604051610d14380380610d148339818101604052810190610032919061011e565b81600160006101000a81548173ffffffffffffffffffffffffffffffffffffffff021916908373ffffffffffffffffffffffffffffffffffffffff16021790555080600260006101000a81548173ffffffffffffffffffffffffffffffffffffffff021916908373ffffffffffffffffffffffffffffffffffffffff160217905550505061015e565b600080fd5b600073ffffffffffffffffffffffffffffffffffffffff82169050919050565b60006100eb826100c0565b9050919050565b6100fb816100e0565b811461010657600080fd5b50565b600081519050610118816100f2565b92915050565b60008060408385031215610135576101346100bb565b5b600061014385828601610109565b925050602061015485828601610109565b9150509250929050565b610ba78061016d6000396000f3fe608060405234801561001057600080fd5b50600436106100625760003560e01c806308f40aa2146100675780630c2322ca14610083578063326b026f1461009f57806344de7900146100d3578063484e7c2e14610103578063873dbcbc14610137575b600080fd5b610081600480360381019061007c9190610938565b610167565b005b61009d60048036038101906100989190610938565b61039a565b005b6100b960048036038101906100b49190610938565b6105cd565b6040516100ca9594939291906109d0565b60405180910390f35b6100ed60048036038101906100e89190610a4f565b61065d565b6040516100fa9190610aa2565b60405180910390f35b61011d60048036038101906101189190610938565b610765565b60405161012e9594939291906109d0565b60405180910390f35b610151600480360381019061014c9190610a4f565b6107f5565b60405161015e9190610aa2565b60405180910390f35b600260009054906101000a900473ffffffffffffffffffffffffffffffffffffffff1673ffffffffffffffffffffffffffffffffffffffff163373ffffffffffffffffffffffffffffffffffffffff16146101f7576040517f08c379a00000000000000000000000000000000000000000000000000000000081526004016101ee90610b1a565b60405180910390fd5b6004600082815260200190815260200160002060000160029054906101000a900473ffffffffffffffffffffffffffffffffffffffff166000806101000a81548173ffffffffffffffffffffffffffffffffffffffff021916908373ffffffffffffffffffffffffffffffffffffffff16021790555060008054906101000a900473ffffffffffffffffffffffffffffffffffffffff1673ffffffffffffffffffffffffffffffffffffffff1663079e86ec826004600085815260200190815260200160002060000160029054906101000a900473ffffffffffffffffffffffffffffffffffffffff166004600086815260200190815260200160002060010160009054906101000a900473ffffffffffffffffffffffffffffffffffffffff166040518463ffffffff1660e01b815260040161033693929190610b3a565b600060405180830381600087803b15801561035057600080fd5b505af1158015610364573d6000803e3d6000fd5b5050505060016004600083815260200190815260200160002060000160016101000a81548160ff02191690831515021790555050565b600160009054906101000a900473ffffffffffffffffffffffffffffffffffffffff1673ffffffffffffffffffffffffffffffffffffffff163373ffffffffffffffffffffffffffffffffffffffff161461042a576040517f08c379a000000000000000000000000000000000000000000000000000000000815260040161042190610b1a565b60405180910390fd5b6003600082815260200190815260200160002060000160029054906101000a900473ffffffffffffffffffffffffffffffffffffffff166000806101000a81548173ffffffffffffffffffffffffffffffffffffffff021916908373ffffffffffffffffffffffffffffffffffffffff16021790555060008054906101000a900473ffffffffffffffffffffffffffffffffffffffff1673ffffffffffffffffffffffffffffffffffffffff1663b59f7ad8826003600085815260200190815260200160002060000160029054906101000a900473ffffffffffffffffffffffffffffffffffffffff166003600086815260200190815260200160002060010160009054906101000a900473ffffffffffffffffffffffffffffffffffffffff166040518463ffffffff1660e01b815260040161056993929190610b3a565b600060405180830381600087803b15801561058357600080fd5b505af1158015610597573d6000803e3d6000fd5b5050505060016003600083815260200190815260200160002060000160016101000a81548160ff02191690831515021790555050565b60036020528060005260406000206000915090508060000160009054906101000a900460ff16908060000160019054906101000a900460ff16908060000160029054906101000a900473ffffffffffffffffffffffffffffffffffffffff16908060010160009054906101000a900473ffffffffffffffffffffffffffffffffffffffff16908060020154905085565b600060016003600086815260200190815260200160002060000160006101000a81548160ff021916908315150217905550826003600086815260200190815260200160002060000160026101000a81548173ffffffffffffffffffffffffffffffffffffffff021916908373ffffffffffffffffffffffffffffffffffffffff160217905550816003600086815260200190815260200160002060010160006101000a81548173ffffffffffffffffffffffffffffffffffffffff021916908373ffffffffffffffffffffffffffffffffffffffff1602179055506003600085815260200190815260200160002060000160009054906101000a900460ff1690509392505050565b60046020528060005260406000206000915090508060000160009054906101000a900460ff16908060000160019054906101000a900460ff16908060000160029054906101000a900473ffffffffffffffffffffffffffffffffffffffff16908060010160009054906101000a900473ffffffffffffffffffffffffffffffffffffffff16908060020154905085565b600060016004600086815260200190815260200160002060000160006101000a81548160ff021916908315150217905550826004600086815260200190815260200160002060000160026101000a81548173ffffffffffffffffffffffffffffffffffffffff021916908373ffffffffffffffffffffffffffffffffffffffff160217905550816004600086815260200190815260200160002060010160006101000a81548173ffffffffffffffffffffffffffffffffffffffff021916908373ffffffffffffffffffffffffffffffffffffffff1602179055506004600085815260200190815260200160002060000160009054906101000a900460ff1690509392505050565b600080fd5b6000819050919050565b61091581610902565b811461092057600080fd5b50565b6000813590506109328161090c565b92915050565b60006020828403121561094e5761094d6108fd565b5b600061095c84828501610923565b91505092915050565b60008115159050919050565b61097a81610965565b82525050565b600073ffffffffffffffffffffffffffffffffffffffff82169050919050565b60006109ab82610980565b9050919050565b6109bb816109a0565b82525050565b6109ca81610902565b82525050565b600060a0820190506109e56000830188610971565b6109f26020830187610971565b6109ff60408301866109b2565b610a0c60608301856109b2565b610a1960808301846109c1565b9695505050505050565b610a2c816109a0565b8114610a3757600080fd5b50565b600081359050610a4981610a23565b92915050565b600080600060608486031215610a6857610a676108fd565b5b6000610a7686828701610923565b9350506020610a8786828701610a3a565b9250506040610a9886828701610a3a565b9150509250925092565b6000602082019050610ab76000830184610971565b92915050565b600082825260208201905092915050565b7f4e4f54204558504f20415554484f524954590000000000000000000000000000600082015250565b6000610b04601283610abd565b9150610b0f82610ace565b602082019050919050565b60006020820190508181036000830152610b3381610af7565b9050919050565b6000606082019050610b4f60008301866109c1565b610b5c60208301856109b2565b610b6960408301846109b2565b94935050505056fea26469706673582212209a0f842220badc0dd2fa980ce4ab4f0d1f0292dea654dab6fb6d456b1d5d6b8664736f6c63430008110033",
  "immutableReferences": {},
  "source": "// SPDX-License-Identifier: MIT\r\n\r\nimport \"./Logistics.sol\";\r\n\r\npragma solidity ^0.8.0;\r\n\r\ncontract PortClearance{\r\n\r\n    Logistics L;\r\n\r\n    address ExportClearanceAuthority;\r\n\r\n    address importClearanceAuthority;\r\n\r\n    struct exportClear{\r\n        bool arrival;\r\n        bool cleared;\r\n        address LogisticsAddress;\r\n        address sellerAddress;\r\n        uint ExpoID;\r\n    }\r\n\r\n    mapping (uint => exportClear) public exportClearances;\r\n\r\n    struct importClear{\r\n        bool arrival;\r\n        bool cleared;\r\n        address LogisticsAddress;\r\n        address buyerAddress;\r\n        uint ExpoID;\r\n    }\r\n\r\n    mapping (uint => importClear) public importClearances;\r\n\r\n    constructor(address _ExportClearanceAuthority,address _importClearanceAuthority){\r\n        ExportClearanceAuthority = _ExportClearanceAuthority;\r\n        importClearanceAuthority = _importClearanceAuthority;\r\n    }\r\n\r\n    modifier onlyExportClearance{\r\n        require(msg.sender == ExportClearanceAuthority, \"NOT EXPO AUTHORITY\");\r\n        _;\r\n    }\r\n\r\n    modifier onlyImportClearance{\r\n        require(msg.sender == importClearanceAuthority, \"NOT EXPO AUTHORITY\");\r\n        _;\r\n    }\r\n\r\n    function exportPortArrival(uint ExpoID,address _LogisticsContractAddress, address _SellerAddress) external returns (bool){\r\n        exportClearances[ExpoID].arrival = true;\r\n        exportClearances[ExpoID].LogisticsAddress = _LogisticsContractAddress;\r\n        exportClearances[ExpoID].sellerAddress = _SellerAddress;\r\n        return exportClearances[ExpoID].arrival;\r\n    }\r\n\r\n    function importPortArrival(uint ExpoID, address _LogisticsContractAddress, address _buyerAddress) external returns (bool){\r\n        importClearances[ExpoID].arrival = true;\r\n        importClearances[ExpoID].LogisticsAddress = _LogisticsContractAddress;\r\n        importClearances[ExpoID].buyerAddress = _buyerAddress;\r\n        return importClearances[ExpoID].arrival;\r\n    }\r\n\r\n    function ExportClearance(uint ExpoID) public onlyExportClearance {\r\n\r\n        L = Logistics(exportClearances[ExpoID].LogisticsAddress);\r\n\r\n        L.exportVerifiction(ExpoID,exportClearances[ExpoID].LogisticsAddress,exportClearances[ExpoID].sellerAddress);\r\n\r\n        exportClearances[ExpoID].cleared = true;\r\n        \r\n    }\r\n\r\n    function importClearance(uint ExpoID) public onlyImportClearance {\r\n\r\n        L = Logistics(importClearances[ExpoID].LogisticsAddress);\r\n\r\n        L.importVerifiction(ExpoID,importClearances[ExpoID].LogisticsAddress,importClearances[ExpoID].buyerAddress);\r\n\r\n        importClearances[ExpoID].cleared = true;\r\n    }\r\n\r\n}\r\n\r\n\r\n\r\n\r\n\r\n\r\n\r\n\r\n\r\n\r\n\r\n// pragma solidity ^0.8.0;\r\n\r\n// contract PortClearance{\r\n\r\n//     address ExportClearanceAuthority;\r\n\r\n//     address importClearanceAuthority;\r\n\r\n//     struct exportClear{\r\n//         bool arrival;\r\n//         bool cleared;\r\n//         address LogisticsAddress;\r\n//         address sellerAddress;\r\n//         uint ExpoID;\r\n//     }\r\n\r\n//     mapping (uint => exportClear) public exportClearances;\r\n\r\n//     struct importClear{\r\n//         bool arrival;\r\n//         bool cleared;\r\n//         address LogisticsAddress;\r\n//         address buyerAddress;\r\n//         uint ExpoID;\r\n//     }\r\n\r\n//     mapping (uint => importClear) public importClearances;\r\n\r\n//     constructor(address _ExportClearanceAuthority,address _importClearanceAuthority){\r\n//         ExportClearanceAuthority = _ExportClearanceAuthority;\r\n//         importClearanceAuthority = _importClearanceAuthority;\r\n//     }\r\n\r\n//     modifier onlyExportClearance{\r\n//         require(msg.sender == ExportClearanceAuthority, \"NOT EXPO AUTHORITY\");\r\n//         _;\r\n//     }\r\n\r\n//     modifier onlyImportClearance{\r\n//         require(msg.sender == importClearanceAuthority, \"NOT EXPO AUTHORITY\");\r\n//         _;\r\n//     }\r\n\r\n//     function exportPortArrival(uint ExpoID,address _LogisticsContractAddress, address _SellerAddress) external returns (bool){\r\n//         exportClearances[ExpoID].arrival = true;\r\n//         exportClearances[ExpoID].LogisticsAddress = _LogisticsContractAddress;\r\n//         exportClearances[ExpoID].sellerAddress = _SellerAddress;\r\n//         return exportClearances[ExpoID].arrival;\r\n//     }\r\n\r\n//     function importPortArrival(uint ExpoID, address _LogisticsContractAddress, address _buyerAddress) external returns (bool){\r\n//         importClearances[ExpoID].arrival = true;\r\n//         importClearances[ExpoID].LogisticsAddress = _LogisticsContractAddress;\r\n//         importClearances[ExpoID].buyerAddress = _buyerAddress;\r\n//         return importClearances[ExpoID].arrival;\r\n//     }\r\n\r\n//     function ExportClearance(uint ExpoID) public onlyExportClearance {\r\n//         exportClearances[ExpoID].cleared = true;\r\n//     }\r\n\r\n//     function importClearance(uint ExpoID) public onlyImportClearance {\r\n//         importClearances[ExpoID].cleared = true;\r\n//     }\r\n\r\n// }",
  "sourcePath": "C:\\Users\\sakha\\OneDrive\\Desktop\\Logistics_Tracing_Application\\contracts\\PortClearance.sol",
  "compiler": {
    "name": "solc",
    "version": "0.8.17+commit.8df45f5f.Emscripten.clang"
  },
  "schemaVersion": "3.4.10",
  "updatedAt": "2022-10-21T09:18:38.031Z",
  "networkType": "ethereum",
  "devdoc": {
    "kind": "dev",
    "methods": {},
    "version": 1
  },
  "userdoc": {
    "kind": "user",
    "methods": {},
    "version": 1
  }
}