{
  "contractName": "Seller",
  "abi": [
    {
      "inputs": [
        {
          "internalType": "address",
          "name": "_seller",
          "type": "address"
        }
      ],
      "stateMutability": "nonpayable",
      "type": "constructor"
    },
    {
      "inputs": [
        {
          "internalType": "uint256",
          "name": "",
          "type": "uint256"
        }
      ],
      "name": "Orders",
      "outputs": [
        {
          "internalType": "uint256",
          "name": "OID",
          "type": "uint256"
        },
        {
          "internalType": "uint256",
          "name": "PID",
          "type": "uint256"
        },
        {
          "internalType": "string",
          "name": "productName",
          "type": "string"
        },
        {
          "internalType": "uint256",
          "name": "pricePaid",
          "type": "uint256"
        },
        {
          "internalType": "address",
          "name": "buyerIDAddress",
          "type": "address"
        },
        {
          "internalType": "address",
          "name": "freighterAddress",
          "type": "address"
        },
        {
          "internalType": "bool",
          "name": "ordered",
          "type": "bool"
        },
        {
          "internalType": "bool",
          "name": "packed",
          "type": "bool"
        },
        {
          "internalType": "bool",
          "name": "handedOver",
          "type": "bool"
        }
      ],
      "stateMutability": "view",
      "type": "function",
      "constant": true
    },
    {
      "inputs": [
        {
          "internalType": "uint256",
          "name": "",
          "type": "uint256"
        }
      ],
      "name": "Products",
      "outputs": [
        {
          "internalType": "uint256",
          "name": "PID",
          "type": "uint256"
        },
        {
          "internalType": "string",
          "name": "productName",
          "type": "string"
        },
        {
          "internalType": "string",
          "name": "productDescription",
          "type": "string"
        },
        {
          "internalType": "uint256",
          "name": "productPrice",
          "type": "uint256"
        },
        {
          "internalType": "string",
          "name": "productPickUpAddress",
          "type": "string"
        },
        {
          "internalType": "bool",
          "name": "sold",
          "type": "bool"
        },
        {
          "internalType": "address",
          "name": "buyer",
          "type": "address"
        }
      ],
      "stateMutability": "view",
      "type": "function",
      "constant": true
    },
    {
      "inputs": [
        {
          "internalType": "uint256",
          "name": "OID",
          "type": "uint256"
        }
      ],
      "name": "viewBuyerDetails",
      "outputs": [
        {
          "internalType": "address",
          "name": "",
          "type": "address"
        },
        {
          "internalType": "string",
          "name": "",
          "type": "string"
        },
        {
          "internalType": "string",
          "name": "",
          "type": "string"
        },
        {
          "internalType": "uint40",
          "name": "",
          "type": "uint40"
        },
        {
          "internalType": "string",
          "name": "",
          "type": "string"
        }
      ],
      "stateMutability": "view",
      "type": "function",
      "constant": true
    },
    {
      "inputs": [
        {
          "internalType": "string",
          "name": "_productName",
          "type": "string"
        },
        {
          "internalType": "string",
          "name": "_productDescription",
          "type": "string"
        },
        {
          "internalType": "uint256",
          "name": "_productPrice",
          "type": "uint256"
        },
        {
          "internalType": "string",
          "name": "pickUpAddress",
          "type": "string"
        }
      ],
      "name": "addProduct",
      "outputs": [],
      "stateMutability": "nonpayable",
      "type": "function"
    },
    {
      "inputs": [
        {
          "internalType": "uint256",
          "name": "_PID",
          "type": "uint256"
        }
      ],
      "name": "requestProductQuotes",
      "outputs": [
        {
          "internalType": "uint256",
          "name": "",
          "type": "uint256"
        },
        {
          "internalType": "string",
          "name": "",
          "type": "string"
        },
        {
          "internalType": "string",
          "name": "",
          "type": "string"
        },
        {
          "internalType": "uint256",
          "name": "",
          "type": "uint256"
        },
        {
          "internalType": "bool",
          "name": "",
          "type": "bool"
        },
        {
          "internalType": "address",
          "name": "",
          "type": "address"
        }
      ],
      "stateMutability": "view",
      "type": "function",
      "constant": true
    },
    {
      "inputs": [
        {
          "internalType": "uint256",
          "name": "pID",
          "type": "uint256"
        },
        {
          "internalType": "address",
          "name": "_Buyer",
          "type": "address"
        },
        {
          "internalType": "string",
          "name": "_name",
          "type": "string"
        },
        {
          "internalType": "string",
          "name": "_address",
          "type": "string"
        },
        {
          "internalType": "uint40",
          "name": "_phone",
          "type": "uint40"
        },
        {
          "internalType": "string",
          "name": "_email",
          "type": "string"
        }
      ],
      "name": "Buy",
      "outputs": [
        {
          "internalType": "uint256",
          "name": "",
          "type": "uint256"
        },
        {
          "internalType": "address",
          "name": "",
          "type": "address"
        },
        {
          "internalType": "uint256",
          "name": "",
          "type": "uint256"
        }
      ],
      "stateMutability": "payable",
      "type": "function",
      "payable": true
    },
    {
      "inputs": [
        {
          "internalType": "uint256",
          "name": "OID",
          "type": "uint256"
        },
        {
          "internalType": "address",
          "name": "_logistics",
          "type": "address"
        }
      ],
      "name": "freightValidation",
      "outputs": [
        {
          "internalType": "uint256",
          "name": "",
          "type": "uint256"
        },
        {
          "internalType": "address",
          "name": "",
          "type": "address"
        },
        {
          "internalType": "string",
          "name": "",
          "type": "string"
        },
        {
          "internalType": "string",
          "name": "",
          "type": "string"
        },
        {
          "internalType": "uint40",
          "name": "",
          "type": "uint40"
        },
        {
          "internalType": "string",
          "name": "",
          "type": "string"
        }
      ],
      "stateMutability": "nonpayable",
      "type": "function"
    },
    {
      "inputs": [
        {
          "internalType": "uint256",
          "name": "OID",
          "type": "uint256"
        }
      ],
      "name": "orderHandOver",
      "outputs": [
        {
          "internalType": "uint256",
          "name": "",
          "type": "uint256"
        }
      ],
      "stateMutability": "nonpayable",
      "type": "function"
    },
    {
      "inputs": [
        {
          "internalType": "uint256",
          "name": "OID",
          "type": "uint256"
        }
      ],
      "name": "packedOrder",
      "outputs": [],
      "stateMutability": "nonpayable",
      "type": "function"
    }
  ],
  "bytecode": "0x6080604052600160025560016003553480156200001b57600080fd5b5060405162002c3238038062002c328339818101604052810190620000419190620000f3565b80600160006101000a81548173ffffffffffffffffffffffffffffffffffffffff021916908373ffffffffffffffffffffffffffffffffffffffff1602179055505062000125565b600080fd5b600073ffffffffffffffffffffffffffffffffffffffff82169050919050565b6000620000bb826200008e565b9050919050565b620000cd81620000ae565b8114620000d957600080fd5b50565b600081519050620000ed81620000c2565b92915050565b6000602082840312156200010c576200010b62000089565b5b60006200011c84828501620000dc565b91505092915050565b612afd80620001356000396000f3fe6080604052600436106100865760003560e01c80638fb326f2116100595780638fb326f214610164578063a9cd06cd146101a9578063c7362411146101eb578063dba3f6aa1461022d578063f800d3321461027057610086565b806328f7a94b1461008b57806340ef9c81146100cc578063703eaa22146100fe5780637ef0597414610127575b600080fd5b34801561009757600080fd5b506100b260048036038101906100ad9190611afa565b610299565b6040516100c3959493929190611c18565b60405180910390f35b6100e660048036038101906100e19190611e0d565b61058a565b6040516100f593929190611efd565b60405180910390f35b34801561010a57600080fd5b5061012560048036038101906101209190611afa565b610bb1565b005b34801561013357600080fd5b5061014e60048036038101906101499190611afa565b610d40565b60405161015b9190611f34565b60405180910390f35b34801561017057600080fd5b5061018b60048036038101906101869190611afa565b610f63565b6040516101a099989796959493929190611f6a565b60405180910390f35b3480156101b557600080fd5b506101d060048036038101906101cb9190611ffe565b6110a0565b6040516101e29695949392919061203e565b60405180910390f35b3480156101f757600080fd5b50610212600480360381019061020d9190611afa565b611442565b604051610224969594939291906120b4565b60405180910390f35b34801561023957600080fd5b50610254600480360381019061024f9190611afa565b6116d7565b6040516102679796959493929190612123565b60405180910390f35b34801561027c57600080fd5b50610297600480360381019061029291906121a7565b6118de565b005b600060608060006060600160009054906101000a900473ffffffffffffffffffffffffffffffffffffffff1673ffffffffffffffffffffffffffffffffffffffff163373ffffffffffffffffffffffffffffffffffffffff1614610332576040517f08c379a0000000000000000000000000000000000000000000000000000000008152600401610329906122ae565b60405180910390fd5b6006600087815260200190815260200160002060010160009054906101000a900473ffffffffffffffffffffffffffffffffffffffff166006600088815260200190815260200160002060020160066000898152602001908152602001600020600301600660008a815260200190815260200160002060040160009054906101000a900464ffffffffff16600660008b81526020019081526020016000206005018380546103df906122fd565b80601f016020809104026020016040519081016040528092919081815260200182805461040b906122fd565b80156104585780601f1061042d57610100808354040283529160200191610458565b820191906000526020600020905b81548152906001019060200180831161043b57829003601f168201915b5050505050935082805461046b906122fd565b80601f0160208091040260200160405190810160405280929190818152602001828054610497906122fd565b80156104e45780601f106104b9576101008083540402835291602001916104e4565b820191906000526020600020905b8154815290600101906020018083116104c757829003601f168201915b505050505092508080546104f7906122fd565b80601f0160208091040260200160405190810160405280929190818152602001828054610523906122fd565b80156105705780601f1061054557610100808354040283529160200191610570565b820191906000526020600020905b81548152906001019060200180831161055357829003601f168201915b505050505090509450945094509450945091939590929450565b6000806000600160009054906101000a900473ffffffffffffffffffffffffffffffffffffffff1673ffffffffffffffffffffffffffffffffffffffff163373ffffffffffffffffffffffffffffffffffffffff160361061f576040517f08c379a00000000000000000000000000000000000000000000000000000000081526004016106169061237a565b60405180910390fd5b600073ffffffffffffffffffffffffffffffffffffffff168873ffffffffffffffffffffffffffffffffffffffff160361068e576040517f08c379a0000000000000000000000000000000000000000000000000000000008152600401610685906123e6565b60405180910390fd5b6000891180156106a057506002548911155b6106df576040517f08c379a00000000000000000000000000000000000000000000000000000000081526004016106d690612452565b60405180910390fd5b60011515600460008b815260200190815260200160002060050160009054906101000a900460ff16151503610749576040517f08c379a0000000000000000000000000000000000000000000000000000000008152600401610740906124be565b60405180910390fd5b6001600460008b815260200190815260200160002060050160006101000a81548160ff02191690831515021790555087600460008b815260200190815260200160002060050160016101000a81548173ffffffffffffffffffffffffffffffffffffffff021916908373ffffffffffffffffffffffffffffffffffffffff1602179055506000600460008b815260200190815260200160002060030154905060405180610120016040528060035481526020018b8152602001600460008d81526020019081526020016000206001018054610823906122fd565b80601f016020809104026020016040519081016040528092919081815260200182805461084f906122fd565b801561089c5780601f106108715761010080835404028352916020019161089c565b820191906000526020600020905b81548152906001019060200180831161087f57829003601f168201915b505050505081526020018281526020018a73ffffffffffffffffffffffffffffffffffffffff168152602001600073ffffffffffffffffffffffffffffffffffffffff168152602001600115158152602001600015158152602001600015158152506005600060035481526020019081526020016000206000820151816000015560208201518160010155604082015181600201908161093c919061268a565b506060820151816003015560808201518160040160006101000a81548173ffffffffffffffffffffffffffffffffffffffff021916908373ffffffffffffffffffffffffffffffffffffffff16021790555060a08201518160050160006101000a81548173ffffffffffffffffffffffffffffffffffffffff021916908373ffffffffffffffffffffffffffffffffffffffff16021790555060c08201518160050160146101000a81548160ff02191690831515021790555060e08201518160050160156101000a81548160ff0219169083151502179055506101008201518160050160166101000a81548160ff0219169083151502179055509050506040518060c0016040528060035481526020018a73ffffffffffffffffffffffffffffffffffffffff1681526020018981526020018881526020018764ffffffffff168152602001868152506006600060035481526020019081526020016000206000820151816000015560208201518160010160006101000a81548173ffffffffffffffffffffffffffffffffffffffff021916908373ffffffffffffffffffffffffffffffffffffffff1602179055506040820151816002019081610b00919061268a565b506060820151816003019081610b16919061268a565b5060808201518160040160006101000a81548164ffffffffff021916908364ffffffffff16021790555060a0820151816005019081610b55919061268a565b509050506000600354905060036000815480929190610b739061278b565b919050555081600160009054906101000a900473ffffffffffffffffffffffffffffffffffffffff1682945094509450505096509650969350505050565b600160009054906101000a900473ffffffffffffffffffffffffffffffffffffffff1673ffffffffffffffffffffffffffffffffffffffff163373ffffffffffffffffffffffffffffffffffffffff1614610c41576040517f08c379a0000000000000000000000000000000000000000000000000000000008152600401610c38906122ae565b60405180910390fd5b6005600082815260200190815260200160002060050160149054906101000a900460ff16610ca4576040517f08c379a0000000000000000000000000000000000000000000000000000000008152600401610c9b9061281f565b60405180910390fd5b600115156005600083815260200190815260200160002060050160159054906101000a900460ff16151503610d0e576040517f08c379a0000000000000000000000000000000000000000000000000000000008152600401610d059061288b565b60405180910390fd5b60016005600083815260200190815260200160002060050160156101000a81548160ff02191690831515021790555050565b60003373ffffffffffffffffffffffffffffffffffffffff166005600084815260200190815260200160002060050160009054906101000a900473ffffffffffffffffffffffffffffffffffffffff1673ffffffffffffffffffffffffffffffffffffffff1614610de6576040517f08c379a0000000000000000000000000000000000000000000000000000000008152600401610ddd906128f7565b60405180910390fd5b6005600083815260200190815260200160002060050160149054906101000a900460ff16610e49576040517f08c379a0000000000000000000000000000000000000000000000000000000008152600401610e409061281f565b60405180910390fd5b6005600083815260200190815260200160002060050160159054906101000a900460ff16610eac576040517f08c379a0000000000000000000000000000000000000000000000000000000008152600401610ea390612963565b60405180910390fd5b600115156005600084815260200190815260200160002060050160169054906101000a900460ff16151503610f16576040517f08c379a0000000000000000000000000000000000000000000000000000000008152600401610f0d906129cf565b60405180910390fd5b60016005600084815260200190815260200160002060050160166101000a81548160ff02191690831515021790555060056000838152602001908152602001600020600101549050919050565b6005602052806000526040600020600091509050806000015490806001015490806002018054610f92906122fd565b80601f0160208091040260200160405190810160405280929190818152602001828054610fbe906122fd565b801561100b5780601f10610fe05761010080835404028352916020019161100b565b820191906000526020600020905b815481529060010190602001808311610fee57829003601f168201915b5050505050908060030154908060040160009054906101000a900473ffffffffffffffffffffffffffffffffffffffff16908060050160009054906101000a900473ffffffffffffffffffffffffffffffffffffffff16908060050160149054906101000a900460ff16908060050160159054906101000a900460ff16908060050160169054906101000a900460ff16905089565b600080606080600060608673ffffffffffffffffffffffffffffffffffffffff163373ffffffffffffffffffffffffffffffffffffffff1614611118576040517f08c379a000000000000000000000000000000000000000000000000000000000815260040161110f90612a3b565b60405180910390fd5b6005600089815260200190815260200160002060050160149054906101000a900460ff1661117b576040517f08c379a00000000000000000000000000000000000000000000000000000000081526004016111729061281f565b60405180910390fd5b86600560008a815260200190815260200160002060050160006101000a81548173ffffffffffffffffffffffffffffffffffffffff021916908373ffffffffffffffffffffffffffffffffffffffff1602179055506005600089815260200190815260200160002060010154600660008a815260200190815260200160002060010160009054906101000a900473ffffffffffffffffffffffffffffffffffffffff16600660008b8152602001908152602001600020600201600660008c8152602001908152602001600020600301600660008d815260200190815260200160002060040160009054906101000a900464ffffffffff16600660008e8152602001908152602001600020600501838054611294906122fd565b80601f01602080910402602001604051908101604052809291908181526020018280546112c0906122fd565b801561130d5780601f106112e25761010080835404028352916020019161130d565b820191906000526020600020905b8154815290600101906020018083116112f057829003601f168201915b50505050509350828054611320906122fd565b80601f016020809104026020016040519081016040528092919081815260200182805461134c906122fd565b80156113995780601f1061136e57610100808354040283529160200191611399565b820191906000526020600020905b81548152906001019060200180831161137c57829003601f168201915b505050505092508080546113ac906122fd565b80601f01602080910402602001604051908101604052809291908181526020018280546113d8906122fd565b80156114255780601f106113fa57610100808354040283529160200191611425565b820191906000526020600020905b81548152906001019060200180831161140857829003601f168201915b505050505090509550955095509550955095509295509295509295565b60006060806000806000806004600089815260200190815260200160002060000154116114a4576040517f08c379a000000000000000000000000000000000000000000000000000000000815260040161149b90612aa7565b60405180910390fd5b6000871180156114b657506002548711155b6114f5576040517f08c379a00000000000000000000000000000000000000000000000000000000081526004016114ec90612452565b60405180910390fd5b600460008881526020019081526020016000206000015460046000898152602001908152602001600020600101600460008a8152602001908152602001600020600201600460008b815260200190815260200160002060030154600460008c815260200190815260200160002060050160009054906101000a900460ff16600460008d815260200190815260200160002060050160019054906101000a900473ffffffffffffffffffffffffffffffffffffffff168480546115b6906122fd565b80601f01602080910402602001604051908101604052809291908181526020018280546115e2906122fd565b801561162f5780601f106116045761010080835404028352916020019161162f565b820191906000526020600020905b81548152906001019060200180831161161257829003601f168201915b50505050509450838054611642906122fd565b80601f016020809104026020016040519081016040528092919081815260200182805461166e906122fd565b80156116bb5780601f10611690576101008083540402835291602001916116bb565b820191906000526020600020905b81548152906001019060200180831161169e57829003601f168201915b5050505050935095509550955095509550955091939550919395565b6004602052806000526040600020600091509050806000015490806001018054611700906122fd565b80601f016020809104026020016040519081016040528092919081815260200182805461172c906122fd565b80156117795780601f1061174e57610100808354040283529160200191611779565b820191906000526020600020905b81548152906001019060200180831161175c57829003601f168201915b50505050509080600201805461178e906122fd565b80601f01602080910402602001604051908101604052809291908181526020018280546117ba906122fd565b80156118075780601f106117dc57610100808354040283529160200191611807565b820191906000526020600020905b8154815290600101906020018083116117ea57829003601f168201915b505050505090806003015490806004018054611822906122fd565b80601f016020809104026020016040519081016040528092919081815260200182805461184e906122fd565b801561189b5780601f106118705761010080835404028352916020019161189b565b820191906000526020600020905b81548152906001019060200180831161187e57829003601f168201915b5050505050908060050160009054906101000a900460ff16908060050160019054906101000a900473ffffffffffffffffffffffffffffffffffffffff16905087565b600160009054906101000a900473ffffffffffffffffffffffffffffffffffffffff1673ffffffffffffffffffffffffffffffffffffffff163373ffffffffffffffffffffffffffffffffffffffff161461196e576040517f08c379a0000000000000000000000000000000000000000000000000000000008152600401611965906122ae565b60405180910390fd5b6040518060e001604052806002548152602001858152602001848152602001838152602001828152602001600015158152602001600073ffffffffffffffffffffffffffffffffffffffff168152506004600060025481526020019081526020016000206000820151816000015560208201518160010190816119f1919061268a565b506040820151816002019081611a07919061268a565b50606082015181600301556080820151816004019081611a27919061268a565b5060a08201518160050160006101000a81548160ff02191690831515021790555060c08201518160050160016101000a81548173ffffffffffffffffffffffffffffffffffffffff021916908373ffffffffffffffffffffffffffffffffffffffff16021790555090505060026000815480929190611aa59061278b565b919050555050505050565b6000604051905090565b600080fd5b600080fd5b6000819050919050565b611ad781611ac4565b8114611ae257600080fd5b50565b600081359050611af481611ace565b92915050565b600060208284031215611b1057611b0f611aba565b5b6000611b1e84828501611ae5565b91505092915050565b600073ffffffffffffffffffffffffffffffffffffffff82169050919050565b6000611b5282611b27565b9050919050565b611b6281611b47565b82525050565b600081519050919050565b600082825260208201905092915050565b60005b83811015611ba2578082015181840152602081019050611b87565b60008484015250505050565b6000601f19601f8301169050919050565b6000611bca82611b68565b611bd48185611b73565b9350611be4818560208601611b84565b611bed81611bae565b840191505092915050565b600064ffffffffff82169050919050565b611c1281611bf8565b82525050565b600060a082019050611c2d6000830188611b59565b8181036020830152611c3f8187611bbf565b90508181036040830152611c538186611bbf565b9050611c626060830185611c09565b8181036080830152611c748184611bbf565b90509695505050505050565b611c8981611b47565b8114611c9457600080fd5b50565b600081359050611ca681611c80565b92915050565b600080fd5b600080fd5b7f4e487b7100000000000000000000000000000000000000000000000000000000600052604160045260246000fd5b611cee82611bae565b810181811067ffffffffffffffff82111715611d0d57611d0c611cb6565b5b80604052505050565b6000611d20611ab0565b9050611d2c8282611ce5565b919050565b600067ffffffffffffffff821115611d4c57611d4b611cb6565b5b611d5582611bae565b9050602081019050919050565b82818337600083830152505050565b6000611d84611d7f84611d31565b611d16565b905082815260208101848484011115611da057611d9f611cb1565b5b611dab848285611d62565b509392505050565b600082601f830112611dc857611dc7611cac565b5b8135611dd8848260208601611d71565b91505092915050565b611dea81611bf8565b8114611df557600080fd5b50565b600081359050611e0781611de1565b92915050565b60008060008060008060c08789031215611e2a57611e29611aba565b5b6000611e3889828a01611ae5565b9650506020611e4989828a01611c97565b955050604087013567ffffffffffffffff811115611e6a57611e69611abf565b5b611e7689828a01611db3565b945050606087013567ffffffffffffffff811115611e9757611e96611abf565b5b611ea389828a01611db3565b9350506080611eb489828a01611df8565b92505060a087013567ffffffffffffffff811115611ed557611ed4611abf565b5b611ee189828a01611db3565b9150509295509295509295565b611ef781611ac4565b82525050565b6000606082019050611f126000830186611eee565b611f1f6020830185611b59565b611f2c6040830184611eee565b949350505050565b6000602082019050611f496000830184611eee565b92915050565b60008115159050919050565b611f6481611f4f565b82525050565b600061012082019050611f80600083018c611eee565b611f8d602083018b611eee565b8181036040830152611f9f818a611bbf565b9050611fae6060830189611eee565b611fbb6080830188611b59565b611fc860a0830187611b59565b611fd560c0830186611f5b565b611fe260e0830185611f5b565b611ff0610100830184611f5b565b9a9950505050505050505050565b6000806040838503121561201557612014611aba565b5b600061202385828601611ae5565b925050602061203485828601611c97565b9150509250929050565b600060c0820190506120536000830189611eee565b6120606020830188611b59565b81810360408301526120728187611bbf565b905081810360608301526120868186611bbf565b90506120956080830185611c09565b81810360a08301526120a78184611bbf565b9050979650505050505050565b600060c0820190506120c96000830189611eee565b81810360208301526120db8188611bbf565b905081810360408301526120ef8187611bbf565b90506120fe6060830186611eee565b61210b6080830185611f5b565b61211860a0830184611b59565b979650505050505050565b600060e082019050612138600083018a611eee565b818103602083015261214a8189611bbf565b9050818103604083015261215e8188611bbf565b905061216d6060830187611eee565b818103608083015261217f8186611bbf565b905061218e60a0830185611f5b565b61219b60c0830184611b59565b98975050505050505050565b600080600080608085870312156121c1576121c0611aba565b5b600085013567ffffffffffffffff8111156121df576121de611abf565b5b6121eb87828801611db3565b945050602085013567ffffffffffffffff81111561220c5761220b611abf565b5b61221887828801611db3565b935050604061222987828801611ae5565b925050606085013567ffffffffffffffff81111561224a57612249611abf565b5b61225687828801611db3565b91505092959194509250565b7f4e6f742053656c6c657200000000000000000000000000000000000000000000600082015250565b6000612298600a83611b73565b91506122a382612262565b602082019050919050565b600060208201905081810360008301526122c78161228b565b9050919050565b7f4e487b7100000000000000000000000000000000000000000000000000000000600052602260045260246000fd5b6000600282049050600182168061231557607f821691505b602082108103612328576123276122ce565b5b50919050565b7f73656c6c65722063616e27742062757900000000000000000000000000000000600082015250565b6000612364601083611b73565b915061236f8261232e565b602082019050919050565b6000602082019050818103600083015261239381612357565b9050919050565b7f496e76616c696420427579657200000000000000000000000000000000000000600082015250565b60006123d0600d83611b73565b91506123db8261239a565b602082019050919050565b600060208201905081810360008301526123ff816123c3565b9050919050565b7f696e76616c69642050726f647563745f49440000000000000000000000000000600082015250565b600061243c601283611b73565b915061244782612406565b602082019050919050565b6000602082019050818103600083015261246b8161242f565b9050919050565b7f416c726561647920736f6c646f75742100000000000000000000000000000000600082015250565b60006124a8601083611b73565b91506124b382612472565b602082019050919050565b600060208201905081810360008301526124d78161249b565b9050919050565b60008190508160005260206000209050919050565b60006020601f8301049050919050565b600082821b905092915050565b6000600883026125407fffffffffffffffffffffffffffffffffffffffffffffffffffffffffffffffff82612503565b61254a8683612503565b95508019841693508086168417925050509392505050565b6000819050919050565b600061258761258261257d84611ac4565b612562565b611ac4565b9050919050565b6000819050919050565b6125a18361256c565b6125b56125ad8261258e565b848454612510565b825550505050565b600090565b6125ca6125bd565b6125d5818484612598565b505050565b5b818110156125f9576125ee6000826125c2565b6001810190506125db565b5050565b601f82111561263e5761260f816124de565b612618846124f3565b81016020851015612627578190505b61263b612633856124f3565b8301826125da565b50505b505050565b600082821c905092915050565b600061266160001984600802612643565b1980831691505092915050565b600061267a8383612650565b9150826002028217905092915050565b61269382611b68565b67ffffffffffffffff8111156126ac576126ab611cb6565b5b6126b682546122fd565b6126c18282856125fd565b600060209050601f8311600181146126f457600084156126e2578287015190505b6126ec858261266e565b865550612754565b601f198416612702866124de565b60005b8281101561272a57848901518255600182019150602085019450602081019050612705565b868310156127475784890151612743601f891682612650565b8355505b6001600288020188555050505b505050505050565b7f4e487b7100000000000000000000000000000000000000000000000000000000600052601160045260246000fd5b600061279682611ac4565b91507fffffffffffffffffffffffffffffffffffffffffffffffffffffffffffffffff82036127c8576127c761275c565b5b600182019050919050565b7f50726f64756374204e6f74204f72646572656421000000000000000000000000600082015250565b6000612809601483611b73565b9150612814826127d3565b602082019050919050565b60006020820190508181036000830152612838816127fc565b9050919050565b7f416c7265616479205061636b6564000000000000000000000000000000000000600082015250565b6000612875600e83611b73565b91506128808261283f565b602082019050919050565b600060208201905081810360008301526128a481612868565b9050919050565b7f496e76616c696420467265696768746572204164647265737300000000000000600082015250565b60006128e1601983611b73565b91506128ec826128ab565b602082019050919050565b60006020820190508181036000830152612910816128d4565b9050919050565b7f4f72646572204e6f74205061636b656400000000000000000000000000000000600082015250565b600061294d601083611b73565b915061295882612917565b602082019050919050565b6000602082019050818103600083015261297c81612940565b9050919050565b7f416c72656164792048616e646564204f76657200000000000000000000000000600082015250565b60006129b9601383611b73565b91506129c482612983565b602082019050919050565b600060208201905081810360008301526129e8816129ac565b9050919050565b7f4e6f742061204672656967687465720000000000000000000000000000000000600082015250565b6000612a25600f83611b73565b9150612a30826129ef565b602082019050919050565b60006020820190508181036000830152612a5481612a18565b9050919050565b7f4e6f2050726f6475637420417661696c61626c65000000000000000000000000600082015250565b6000612a91601483611b73565b9150612a9c82612a5b565b602082019050919050565b60006020820190508181036000830152612ac081612a84565b905091905056fea2646970667358221220d2d2151348ab5951d2d3edfe6bcedc03c063b849e8153ef4bd05d1c32a17b75064736f6c63430008110033",
  "immutableReferences": {},
  "source": "// SPDX-License-Identifier: MIT\r\n\r\nimport \"./Logistics.sol\";\r\n\r\npragma solidity ^0.8.0;\r\n\r\ncontract Seller{\r\n\r\n    Logistics L;\r\n\r\n    address seller;\r\n\r\n    uint PIDCount = 1;\r\n\r\n    uint OIDCount = 1;\r\n\r\n    struct product{\r\n\r\n        uint PID;\r\n\r\n        string productName;\r\n\r\n        string productDescription;\r\n\r\n        uint productPrice;\r\n\r\n        string productPickUpAddress;\r\n\r\n        bool sold;\r\n\r\n        address buyer;\r\n\r\n    }\r\n\r\n    mapping (uint => product) public Products;\r\n\r\n    struct order{\r\n\r\n        uint OID; \r\n\r\n        uint PID;\r\n\r\n        string productName;\r\n\r\n        uint pricePaid;\r\n\r\n        address buyerIDAddress;\r\n\r\n        address freighterAddress;\r\n\r\n        bool ordered;\r\n\r\n        bool packed;\r\n\r\n        bool handedOver;\r\n\r\n    }\r\n    \r\n    mapping (uint => order) public Orders;\r\n    \r\n    struct buyerDetail{\r\n\r\n        uint OID;\r\n\r\n        address buyerIDAddress;\r\n\r\n        string buyerName;\r\n\r\n        string buyerPostalAddress;\r\n\r\n        uint40 buyerPhone;\r\n\r\n        string buyerEmail;\r\n\r\n    }\r\n\r\n    mapping (uint => buyerDetail) internal BuyerDetails;\r\n\r\n    constructor(address _seller) {\r\n\r\n        seller = _seller;\r\n\r\n    }\r\n\r\n\r\n    modifier onlySeller() {\r\n\r\n        require(msg.sender == seller,\"Not Seller\");\r\n        _;\r\n\r\n    }\r\n    \r\n\r\n    function viewBuyerDetails(uint OID) public view onlySeller returns (address,\r\n        string memory,\r\n        string memory, \r\n        uint40,\r\n        string memory) {\r\n        \r\n        return (BuyerDetails[OID].buyerIDAddress,\r\n        BuyerDetails[OID].buyerName,\r\n        BuyerDetails[OID].buyerPostalAddress,\r\n        BuyerDetails[OID].buyerPhone,\r\n        BuyerDetails[OID].buyerEmail);\r\n        \r\n    }\r\n\r\n    function addProduct\r\n\r\n        (string memory _productName, \r\n        string memory _productDescription,\r\n        uint _productPrice,\r\n        string memory pickUpAddress) \r\n        \r\n        public onlySeller {\r\n\r\n        Products[PIDCount] = product(PIDCount,_productName,_productDescription,_productPrice,pickUpAddress,false,address(0));\r\n\r\n        PIDCount++;\r\n\r\n    }\r\n\r\n\r\n    function requestProductQuotes(uint _PID) external view returns (uint, \r\n        string memory, \r\n        string memory, \r\n        uint, \r\n        bool, \r\n        address) {\r\n        \r\n        require(Products[_PID].PID > 0, \"No Product Available\");\r\n          \r\n        require(_PID > 0 && _PID <=  PIDCount, \"invalid Product_ID\");\r\n\r\n        return (Products[_PID].PID,\r\n        Products[_PID].productName,\r\n        Products[_PID].productDescription,\r\n        Products[_PID].productPrice,\r\n        Products[_PID].sold,\r\n        Products[_PID].buyer);\r\n\r\n    }\r\n\r\n\r\n    // function Buy\r\n    \r\n    //     (uint pID,\r\n    //     address _Buyer,\r\n    //     string memory _name,\r\n    //     string memory _address,\r\n    //     uint40 _phone,\r\n    //     string memory _email)\r\n        \r\n    //     public payable returns (uint, address, uint) {\r\n\r\n    //     require(msg.sender != seller, \"seller can't buy\");\r\n\r\n    //     require(_Buyer != address(0), \"Invalid Buyer\");\r\n\r\n    //     require(pID > 0 && pID <=  PIDCount, \"invalid Product_ID\");\r\n\r\n    //     require(Products[pID].sold != true, \"Already soldout!\");\r\n\r\n    //     Products[pID].sold = true;\r\n\r\n    //     Products[pID].buyer = _Buyer;\r\n\r\n    //     uint toPay = Products[pID].productPrice;\r\n\r\n    //     Orders[OIDCount] = order(OIDCount,pID,Products[pID].productName,toPay,_Buyer,address(0),true,false,false);\r\n\r\n    //     BuyerDetails[OIDCount] = buyerDetail(OIDCount,_Buyer,_name,_address,_phone,_email);\r\n\r\n    //     uint oid = OIDCount;\r\n\r\n    //     OIDCount++;\r\n\r\n    //     return (toPay, seller, oid);\r\n\r\n    // }\r\n\r\n    function Buy\r\n    \r\n        (uint pID,\r\n        address _Buyer,\r\n        string memory _name,\r\n        string memory _address,\r\n        uint40 _phone,\r\n        string memory _email)\r\n        \r\n        external payable returns (uint, address, uint) {\r\n\r\n        require(msg.sender != seller, \"seller can't buy\");\r\n\r\n        require(_Buyer != address(0), \"Invalid Buyer\");\r\n\r\n        require(pID > 0 && pID <=  PIDCount, \"invalid Product_ID\");\r\n\r\n        require(Products[pID].sold != true, \"Already soldout!\");\r\n\r\n        Products[pID].sold = true;\r\n\r\n        Products[pID].buyer = _Buyer;\r\n\r\n        uint toPay = Products[pID].productPrice;\r\n\r\n        Orders[OIDCount] = order(OIDCount,pID,Products[pID].productName,toPay,_Buyer,address(0),true,false,false);\r\n\r\n        BuyerDetails[OIDCount] = buyerDetail(OIDCount,_Buyer,_name,_address,_phone,_email);\r\n        \r\n        uint oid = OIDCount;\r\n\r\n        OIDCount++;\r\n\r\n        return (toPay, seller, oid);\r\n\r\n    }\r\n\r\n    function freightValidation(uint OID, address _logistics) external returns (uint,address,\r\n        string memory,\r\n        string memory,\r\n        uint40,\r\n        string memory){\r\n\r\n        require(msg.sender == _logistics, \"Not a Freighter\");\r\n\r\n        require(Orders[OID].ordered, \"Product Not Ordered!\");\r\n\r\n        Orders[OID].freighterAddress = _logistics;\r\n\r\n\r\n        return (Orders[OID].PID,\r\n        BuyerDetails[OID].buyerIDAddress,\r\n        BuyerDetails[OID].buyerName,\r\n        BuyerDetails[OID].buyerPostalAddress,\r\n        BuyerDetails[OID].buyerPhone,\r\n        BuyerDetails[OID].buyerEmail);\r\n\r\n    }\r\n\r\n    function orderHandOver(uint OID) external returns (uint){\r\n        \r\n        require(Orders[OID].freighterAddress == msg.sender,\"Invalid Freighter Address\");\r\n\r\n        require(Orders[OID].ordered, \"Product Not Ordered!\");\r\n\r\n        require(Orders[OID].packed, \"Order Not Packed\");\r\n\r\n        require(Orders[OID].handedOver != true, \"Already Handed Over\");\r\n\r\n        Orders[OID].handedOver = true;\r\n\r\n        return (Orders[OID].PID);\r\n\r\n    }\r\n\r\n    function packedOrder(uint OID) public onlySeller {\r\n\r\n        require(Orders[OID].ordered, \"Product Not Ordered!\");\r\n        \r\n        require(Orders[OID].packed != true,\"Already Packed\");\r\n\r\n        Orders[OID].packed = true;\r\n\r\n    }\r\n\r\n\r\n}\r\n\r\n\r\n\r\n\r\n\r\n\r\n\r\n\r\n\r\n// import \"./Logistics.sol\";\r\n\r\n// pragma solidity ^0.8.0;\r\n\r\n// contract Seller{\r\n\r\n//     address seller;\r\n\r\n//     uint PIDCount = 1;\r\n\r\n//     uint OIDCount = 1;\r\n\r\n//     struct product{\r\n\r\n//         uint PID;\r\n\r\n//         string productName;\r\n\r\n//         string productDescription;\r\n\r\n//         uint productPrice;\r\n\r\n//         bool sold;\r\n\r\n//         address buyer;\r\n\r\n//     }\r\n\r\n//     mapping (uint => product) public Products;\r\n\r\n//     struct order{\r\n\r\n//         uint OID;\r\n\r\n//         uint PID;\r\n\r\n//         string productName;\r\n\r\n//         uint pricePaid;\r\n\r\n//         address buyerIDAddress;\r\n\r\n//         bool ordered;\r\n\r\n//     }\r\n    \r\n//     mapping (uint => order) public Orders;\r\n    \r\n//     struct buyerDetail{\r\n\r\n//         uint OID;\r\n\r\n//         address buyerIDAddress;\r\n\r\n//         string buyerName;\r\n\r\n//         string buyerPostalAddress;\r\n\r\n//         uint40 buyerPhone;\r\n\r\n//         string buyerEmail;\r\n\r\n//     }\r\n\r\n//     mapping (uint => buyerDetail) internal BuyerDetails;\r\n\r\n//     constructor(address _seller) {\r\n\r\n//         seller = _seller;\r\n\r\n//     }\r\n\r\n\r\n//     modifier onlySeller() {\r\n\r\n//         require(msg.sender == seller,\"Not Seller\");\r\n//         _;\r\n\r\n//     }\r\n    \r\n\r\n//     function viewBuyerDetails(uint OID) public view onlySeller returns (address,\r\n//         string memory,\r\n//         string memory, \r\n//         uint40,\r\n//         string memory) {\r\n        \r\n//         return (BuyerDetails[OID].buyerIDAddress,\r\n//         BuyerDetails[OID].buyerName,\r\n//         BuyerDetails[OID].buyerPostalAddress,\r\n//         BuyerDetails[OID].buyerPhone,\r\n//         BuyerDetails[OID].buyerEmail);\r\n        \r\n//     }\r\n\r\n//     function addProduct\r\n\r\n//         (string memory _productName, \r\n//         string memory _productDescription,\r\n//         uint _productPrice) \r\n        \r\n//         public onlySeller {\r\n\r\n//         Products[PIDCount] = product(PIDCount,_productName,_productDescription,_productPrice,false,address(0));\r\n\r\n//         PIDCount++;\r\n\r\n//     }\r\n\r\n\r\n//     function requestProductQuotes(uint _PID) external view returns (uint, \r\n//         string memory, \r\n//         string memory, \r\n//         uint, \r\n//         bool, \r\n//         address) {\r\n          \r\n//         require(_PID > 0 && _PID <=  PIDCount, \"invalid Product_ID\");\r\n\r\n//         return (Products[_PID].PID,\r\n//         Products[_PID].productName,\r\n//         Products[_PID].productDescription,\r\n//         Products[_PID].productPrice,\r\n//         Products[_PID].sold,\r\n//         Products[_PID].buyer);\r\n\r\n//     }\r\n\r\n\r\n//     function Buy\r\n    \r\n//         (uint pID, \r\n//         address _Buyer, \r\n//         string memory _name, \r\n//         string memory _address,\r\n//         uint40 _phone, \r\n//         string memory _email)\r\n        \r\n//         public payable returns (uint, address) { \r\n\r\n//         require(_Buyer != address(0), \"Invalid Buyer\");\r\n\r\n//         require(pID > 0 && pID <=  PIDCount, \"invalid Product_ID\");\r\n\r\n//         require(Products[pID].sold != true, \"Already soldout!\");\r\n\r\n//         Products[pID].sold = true;\r\n\r\n//         Products[pID].buyer = _Buyer;\r\n\r\n//         uint toPay = Products[pID].productPrice;\r\n\r\n//         Orders[OIDCount] = order(OIDCount,pID,Products[pID].productName,toPay,_Buyer,true);\r\n\r\n//         BuyerDetails[OIDCount] = buyerDetail(OIDCount,_Buyer,_name,_address,_phone,_email);\r\n\r\n//         OIDCount++;\r\n\r\n//         return (toPay, seller);\r\n\r\n//     }\r\n\r\n//     function freightValidation(uint OID) external view returns (address,\r\n//         string memory,\r\n//         string memory,\r\n//         uint40,\r\n//         string memory){\r\n\r\n//         require(Orders[OID].ordered, \"Not Ordered!\");\r\n\r\n//         return (BuyerDetails[OID].buyerIDAddress,\r\n//         BuyerDetails[OID].buyerName,\r\n//         BuyerDetails[OID].buyerPostalAddress,\r\n//         BuyerDetails[OID].buyerPhone,\r\n//         BuyerDetails[OID].buyerEmail);\r\n\r\n\r\n//     }\r\n\r\n\r\n// }\r\n\r\n",
  "sourcePath": "C:\\Users\\sakha\\OneDrive\\Desktop\\Logistics_Tracing_Application\\contracts\\Seller.sol",
  "compiler": {
    "name": "solc",
    "version": "0.8.17+commit.8df45f5f.Emscripten.clang"
  },
  "schemaVersion": "3.4.10",
  "updatedAt": "2022-10-21T09:18:34.294Z",
  "networkType": "ethereum",
  "devdoc": {
    "kind": "dev",
    "methods": {},
    "version": 1
  },
  "userdoc": {
    "kind": "user",
    "methods": {},
    "version": 1
  }
}